:020000040000FA
:0400000059EF00F0C4
:100018007480D8CF02F0E8CF03F0E0CF04F0F2A468
:100028003CD0724A732A73BE33D0735004E1140E65
:10003800725CD8A02DD0000E736E000E726E81A077
:1000480002D0010E01D0000EFF0A016E8150011886
:10005800FE0B0118816E0001824B832B83BF18D0E1
:10006800835104E1020E825DD8A012D0704A712A31
:1000780071BE0AD0715004E1640E705CD8A004D03F
:10008800000E716E000E706E000E836F000E826F90
:10009800000ED76E3D0ED66EF29404C0E0FF03C08A
:0E00A800E8FF02C0D8FF7490100027EF0AF0A6
:1006000000434F4E544147454D3A20303000544945
:0B0610004D45523000253032640000E0
:10061C0046C0D9FF47C0DAFFDECFF6FFDDCFF7FFCC
:10062C000800F550250AD8A443D146C0D9FF47C0CD
:10063C00DAFFDE2A000EDD22000E6B6E000E6A6EF3
:10064C006AC06EF06BC06FF06C686D68000E576E10
:10065C00000E14D06E8046C0D9FF47C0DAFFDE2AE8
:10066C00000EDD222ED06E82F6D76E84F4D76E8605
:10067C00F2D76E88F0D7000E576E010E566E21D051
:10068C0046C0D9FF47C0DAFFDECFF6FFDDCFF7FF5C
:10069C000800F5504A6E4B6A4B50000AD8A4EBD7B1
:1006AC004A50200AD8B4E3D7030AD8B4E2D7080AD0
:1006BC00D8B4DBD7060AD8B4CDD71D0AD8B4D3D753
:1006CC00DAD756505710D8B4DBD76EB06E9246C0FE
:1006DC00D9FF47C0DAFFDECFF6FFDDCFF7FF08000A
:1006EC00F5502A0AD8A423D046C0D9FF47C0DAFF58
:1006FC00DE2A000EDD2248C0D9FF49C0DAFFDFCF69
:10070C004AF0020EDE26DFCF4BF0000EDD224AC08F
:10071C00D9FF4BC0DAFFDECF6AF0DDCF6BF06BAEEA
:10072C003FD06E806A6C6B1ED8B06B2A39D046C035
:10073C00D9FF47C0DAFFDECF0CF0DDCF0DF03DEC7A
:10074C0006F00CC06AF00DC06BF007D046C0D9FFA4
:10075C0047C0DAFFDE2A000EDD22D00E4A6EFF0EF5
:10076C004B6E46C0D9FF47C0DAFFDECFF6FFDDCFB8
:10077C00F7FF0800F5504C6E4D6A4A504C264B5012
:10078C004D224D5006E10A0E4C5CD8B002D0010E41
:10079C0001D0000E586E596A58505910D8A4D6D7AB
:1007AC0046C0D9FF47C0DAFFDECFF6FFDDCFF7FF3B
:1007BC000800F550640AD8B40DD046C0D9FF47C024
:1007CC00DAFFDECFF6FFDDCFF7FF0800F550690A40
:1007DC00D8A43FD046C0D9FF47C0DAFFDE2A000EAE
:1007EC00DD2248C0D9FF49C0DAFFDFCF4AF0020E44
:1007FC00DE26DFCF4BF0000EDD224AC0D9FF4BC006
:10080C00DAFFDECF4EF0DDCF4FF0000E4FBEFF0E05
:10081C00506E516E526E536E546E556E44C020F035
:10082C0045C021F04EC022F04FC023F050C024F040
:10083C0051C025F052C026F053C027F054C028F008
:10084C0055C029F078EC04F020C044F021C045F0EC
:10085C00120046C0D9FF47C0DAFFDECFF6FFDDCF6E
:10086C00F7FF0800F550250AD8A416D046C0D9FFCA
:10087C0047C0DAFFDE2A000EDD22000E066E250EC2
:10088C00056E44C007F045C008F031EC08F0000ECE
:10089C00456E010E446E120046C0D9FF47C0DAFF08
:1008AC00DE2A000EDD22000E456E000E446E120094
:1008BC0046C0D9FF47C0DAFFDECFF6FFDDCFF7FF2A
:1008CC000800F550056E066A44C007F045C008F0F4
:1008DC0031EC08F046C0D9FF47C0DAFFDE2A000E23
:1008EC00DD22D5D722C03AF023C03BF024C03CF027
:1008FC0025C03DF026C03EF027C03FF028C040F098
:10090C0029C041F041AE02D0010E01D0000E386E6C
:10091C00396A38503910D8B410D0411E401E3F1ED1
:10092C003E1E3D1E3C1E3B1E3A6C000E3B223C22E2
:10093C003D223E223F22402241226DAE6E926DBE80
:10094C0005D06D5008E16C04D8B005D0000E356EA2
:10095C00010E346E04D06CC034F06DC035F06AC03A
:10096C0036F06BC037F038503910D8A402D06EA4D2
:10097C0003D03606D8A03706000E436E1F0E426E0B
:10098C00000E0001A36F7CD04206D8A04306840E53
:10099C004224D96E000E4320DA6E3AC005F03BC0FB
:1009AC0006F03CC007F03DC008F03EC009F03FC067
:1009BC000AF040C00BF041C00CF00A0E0D6E000E98
:1009CC000E6E000E0F6E000E106E000E116E000EED
:1009DC00126E000E136E000E146EDDEC06F005C0E8
:1009EC002AF006C02BF007C02CF008C02DF009C06F
:1009FC002EF00AC02FF00BC030F00CC031F02AC022
:100A0C0017F02CC018F0E1EC09F01750300FDF6E26
:100A1C003406D8A035063606D8A037063AC005F0FD
:100A2C003BC006F03CC007F03DC008F03EC009F0EA
:100A3C003FC00AF040C00BF041C00CF00A0E0D6E26
:100A4C00000E0E6E000E0F6E000E106E000E116E6C
:100A5C00000E126E000E136E000E146E99EC05F063
:100A6C0005C03AF006C03BF007C03CF008C03DF0B2
:100A7C0009C03EF00AC03FF00BC040F00CC041F082
:100A8C0043BE1FD0435003E14204D8A01AD03A50C1
:100A9C003B103C103D103E103F1040104110D8A4AC
:100AAC0073D735BE05D0355002E13404D8B06CD7BD
:100ABC0037BE07D0375003E13604D8A002D06EB24F
:100ACC0063D738503910D8A402D06EA417D0420680
:100ADC00D8A0430638503910D8A404D0000E336E79
:100AEC002B0E03D0000E336E2D0E326E840E42246C
:100AFC00D96E000E4320DA6E32C0DFFF20C015F035
:100B0C0021C016F0840E4224176E000E4320186E7E
:100B1C0036C019F037C01AF081EC08F015C020F07F
:100B2C0016C021F01200000E166E14AE12D0141E58
:100B3C00131E121E111E101E0F1E0E1E0D6C000E0B
:100B4C000E220F2210221122122213221422010E25
:100B5C00166E0CAE12D00C1E0B1E0A1E091E081EA1
:100B6C00071E061E056C000E06220722082209220B
:100B7C000A220B220C22010E161A20EE17F0070E79
:100B8C00DE6AE806FDE20D500E100F101010111069
:100B9C00121013101410D8B446D0010E156E0AD0D2
:100BAC00D8900D360E360F361036113612361336E7
:100BBC001436152A14AEF4D7D890173618361936C1
:100BCC001A361B361C361D361E360D50055C0E5063
:100BDC0006580F5007581050085811500958125009
:100BEC000A5813500B5814500C58D8A011D00D5053
:100BFC00055E0E50065A0F50075A1050085A1150E5
:100C0C00095A12500A5A13500B5A14500C5A178086
:100C1C00D890143213321232113210320F320E328B
:100C2C000D32152EC9D71650D8B410D01E1E1D1E4D
:100C3C001C1E1B1E1A1E191E181E176C000E1822C5
:100C4C0019221A221B221C221D221E2217C005F05B
:100C5C0018C006F019C007F01AC008F01BC009F044
:100C6C001CC00AF01DC00BF01EC00CF01200000ED0
:100C7C001A6E000E196E000E136E000E126E02D05C
:100C8C000C4A0D2A010E186E0CC0F6FF0DC0F7FFB2
:100C9C000800F550200AD8B418D0F70E0E6EFF0ECF
:100CAC000F6E0CC0F6FF0DC0F7FF0800F550106E6C
:100CBC00116A0E5010260F501122115004E1050E2E
:100CCC00105CD8A002D0000E186E18C014F0156A73
:100CDC0014501510D8B408D0D3D7000E136E010ED3
:100CEC00126E0C4A0D2A2ED00CC0F6FF0DC0F7FF69
:100CFC000800F5500E6E0F6A0F50000AD8A422D0CF
:100D0C000E502B0AD8B4EDD7060AD8B4E6D71AD0B1
:100D1C0019C005F01AC006F0000E086E0A0E076E18
:100D2C003AEC0AF00CC0F6FF0DC0F7FF0800F550C6
:100D3C00055E000E065A300E0524196E000E0620B4
:100D4C001A6ECFD7D00E0E6EFF0E0F6E0CC0F6FFC4
:100D5C000DC0F7FF0800F550106E116A0E501026EA
:100D6C000F501122115006E10A0E105CD8B002D0BF
:100D7C00010E01D0000E166E176A16501710D8A46B
:100D8C00C7D712501310D8A40DD019C00EF01AC02A
:100D9C000FF00E1E0F1E0E4A0F2A0EC00CF00FC0C5
:100DAC000DF0120019C00CF01AC00DF01200000E5C
:100DBC00166E0CAE12D00C1E0B1E0A1E091E081E3F
:100DCC00071E061E056C000E0622072208220922A9
:100DDC000A220B220C22010E166E14AE10D0141E19
:100DEC00131E121E111E101E0F1E0E1E0D6C000E59
:100DFC000E220F22102211221222132214220D5025
:100E0C000E100F1010101110121013101410D8B463
:100E1C003CD0010E156E0AD0D8900D360E360F361A
:100E2C0010361136123613361436152A14AEF4D782
:100E3C000D50055C0E5006580F50075810500858AE
:100E4C001150095812500A5813500B5814500C5882
:100E5C00D8A010D00D50055E0E50065A0F50075AF0
:100E6C001050085A1150095A12500A5A13500B5A62
:100E7C0014500C5AD89014321332123211321032E0
:100E8C000F320E320D32152ED3D71650D8B410D0D7
:100E9C000C1E0B1E0A1E091E081E071E061E056CC4
:100EAC00000E06220722082209220A220B220C22FB
:100EBC0005C005F006C006F007C007F008C008F032
:100ECC0009C009F00AC00AF00BC00BF00CC00CF002
:100EDC001200086E100E056E08505CEC0AF0076EDE
:100EEC00073A83500718EF0B0718836E200E056E18
:100EFC0008505CEC0AF0076E073A07468350071857
:100F0C00DF0B0718836E400E056E08505CEC0AF080
:100F1C00076E073A0746074683500718BF0B07189A
:100F2C00836E800E056E08505CEC0AF0076E07327B
:100F3C000732835007187F0B0718836E84828492C4
:100F4C00420EE82EFED700D0010E056E08505CEC68
:100F5C000AF0076E073A83500718EF0B0718836ED9
:100F6C00020E056E08505CEC0AF0076E073A074655
:100F7C0083500718DF0B0718836E040E056E08509C
:100F8C005CEC0AF0076E073A0746074683500718D1
:100F9C00BF0B0718836E080E056E08505CEC0AF048
:100FAC00076E07320732835007187F0B0718836EC2
:100FBC00848284921200939081900F0EC16EA00EC9
:100FCC00F26EC70ED56E000ED76E3D0ED66ECCEC03
:100FDC0008F0060E0B6E0E0E0C6E060E0D6E010E4C
:100FEC0014EC09F0030E0B6E010E0C6E060E0D6E5A
:100FFC00020E14EC09F071BE0AD0715004E1640EBB
:10100C00705CD8A004D0000E716E000E706E020ED3
:10101C00696E040E686EBA0EE82EFED7682EFCD7E9
:10102C00692EFAD700D0A40E626E000E636E150EF8
:10103C00646E060E656E70C066F071C067F07DEC74
:10104C0009F00D0E0B6EA40E0C6E000E0D6E020E42
:10105C0014EC09F0D0D707500810D8B404D00750BE
:10106C000810D8A404D0055066EC0AF0120020EE4B
:10107C0004F00750D9260850DA22DE50DE10D8B41E
:10108C0016D020EE04F00750D9260850DA2210EEC4
:10109C0002F00750E1260850E222DE50E65CE650F2
:1010AC00800A0D6EDE50800A0D58D8B0120020EE6A
:1010BC0002F00750D9260850DA22DECF09F0DDCF36
:1010CC000AF007C0D9FF08C0DAFFDECF0BF0DDCF86
:1010DC000CF009500B24D96E0A500C20DA6E05C0A6
:1010EC00DFFF20EE02F00750D9260850DA22DE2A64
:1010FC00000EDD2212006EA00AD017C00EF018C030
:10110C000FF015C010F016C011F0C5EC09F01ABEA6
:10111C0005D019C01EF01AC01FF004D0000E1F6EAF
:10112C00000E1E6E000E1D6E000E1C6E0CD0000EFE
:10113C00066E200E056E15C007F016C008F031ECD7
:10114C0008F01C4A1D2A1E501C5C1D50800A1B6E88
:10115C001F50800A1B58D8A0EAD76EB00AD017C00F
:10116C000EF018C00FF015C010F016C011F0C5EC41
:10117C0009F017C005F018C006F012EC0AF01E506A
:10118C000524156E1F500620166E1200000E956E6B
:10119C0096929690000E836E84908492270E096E20
:1011AC00F50EE82EFED7092EFCD700F0000E0A6EC5
:1011BC00300E6FEC07F00D0E096EFC0EE82EFED70C
:1011CC00092EFCD70A2A020E0A64F2D7020E6FEC23
:1011DC0007F01A0EE82EFED700D0280E6FEC07F0A1
:1011EC001A0EE82EFED700D0010E6FEC07F0060E9B
:1011FC00096E300EE82EFED7092EFCD700D00C0E4F
:10120C006FEC07F01A0EE82EFED700D0060E6FEC2E
:10121C0007F01A0EE82EFED700D012000F6E0F0446
:10122C00D8A403D00B507F0F06D0020E0F18D8A4F1
:10123C0003D00B50BF0F0E6E0EC009F0000E4DEC1C
:10124C000AF016D00CC0F6FF0DC0F7FFF86A050EB9
:10125C00F76403D00800F55005D0F6CFE1FFF7CFC7
:10126C00E2FFE750096E010E4DEC0AF00C4A0D2A14
:10127C000CC0F6FF0DC0F7FFF86A050EF76403D03B
:10128C000800F55005D0F6CFE1FFF7CFE2FFE750AD
:10129C000009D8B41200D6D75CC060F05DC061F014
:1012AC00000E0001816F000E806F13D05AC044F005
:1012BC005BC045F0600E466E000E476E5EC048F097
:1012CC005FC049F00EEC03F04450000180274550FC
:1012DC00812360C0F6FF61C0F7FF0800F5500009DC
:1012EC00D8A4E4D780C05AF081C05BF01200660E1F
:1012FC000001B66F000EB76F62C0B8F063C0B9F0F2
:10130C00000EBB6F000EBA6F000EBD6F000EBC6FEF
:10131C00B80E5A6E000E5B6E64C05CF065C05DF07A
:10132C00B60E5E6E000E5F6E52EC09F00001BA5103
:10133C006224D96EBB516320DA6E000EDF6E120090
:10134C00010E0B6E200E05180610D8B414D0F70E33
:10135C00076EFF0E086E05C009F006C00AF00750B4
:10136C00092608500A220A5004E1050E095CD8A08F
:10137C0002D0000E0B6E0BC005F0066A1200000EB8
:10138C00146E000E136E0BD012C005F0066A10C05E
:10139C0007F011C008F031EC08F0134A142A13506E
:1013AC000E24D96E14500F20DA6EDF50126E1250CC
:1013BC00D8B41200E9D718BE05D0185010E11704A4
:1013CC00D8B00DD017C019F018C01AF0191E1A1E7B
:1013DC00194A1A2A19C017F01AC018F0120017C0AF
:1013EC0017F018C018F01200D00E076EFF0E086E22
:1013FC0005C009F006C00AF00750092608500A2259
:10140C000A5006E10A0E095CD8B002D0010E01D0D8
:10141C00000E056E066A120005C007F006C008F043
:10142C0002D0054A062A05C0D9FF06C0DAFFDF50F4
:10143C00D8A4F7D70750055C056E08500658066E01
:10144C00120000EE80F0340EEE6AE806FDE100EECC
:10145C006AF00A0EEE6AE806FDE174907492000ED2
:10146C00F86E0001E1EF07F005500702F3CF09F029
:10147C00F4CF0AF005500802F3500A260650070272
:10148C00F3500A2609C005F00AC006F012000A6ED5
:10149C000AB002D0849001D08480420EE82EFED790
:1014AC0000D0849209506FEC07F01200066E0650C3
:1014BC0005140009D8B402D0010E1200000E12005F
:0214CC0012000C
:020000040020DA
:08000000FFFFFFFFFFFFFFFF00
:020000040030CA
:0E000000FF02181EFF8181FF0FC00FE00F40AE
:00000001FF
