:020000040000FA
:0400000034EF3FF0AA
:107E680000018DEF3FF0016E01C083FF8482849290
:107E78001200036E03B002D0849001D08480420EB9
:107E8800E82EFED700D08492025037EC3FF0120063
:107E9800000E956E96929690000E836E8490849252
:107EA800270E026EF50EE82EFED7022EFCD700F044
:107EB800000E036E300E37EC3FF00D0E026EFC0E16
:107EC800E82EFED7022EFCD7032A020E0364F2D74F
:107ED800380E37EC3FF01A0EE82EFED700D0010E10
:107EE80037EC3FF0060E026E300EE82EFED7022E5B
:107EF800FCD700D00C0E37EC3FF01A0EE82EFED758
:107F080000D0060E37EC3FF01A0EE82EFED700D050
:107F180012000F0EC16E4CEC3FF0830E026E000E85
:107F28003DEC3FF0500E026E010E3DEC3FF0490E65
:107F3800026E010E3DEC3FF0430E026E010E3DEC69
:107F48003FF0310E026E010E3DEC3FF0380E026E2E
:107F5800010E3DEC3FF0460E026E010E3DEC3FF087
:107F6800340E026E010E3DEC3FF0350E026E010E2E
:107F78003DEC3FF0320E026E010E3DEC3FF0300E4C
:107F8800026E010E3DEC3FF0C30E026E000E3DEC9A
:107F98003FF04C0E026E010E3DEC3FF0430E026EB8
:107FA800010E3DEC3FF0440E026E010E3DEC3FF039
:107FB800200E026E010E3DEC3FF0380E026E010EEF
:107FC8003DEC3FF0200E026E010E3DEC3FF0420EFC
:107FD800026E010E3DEC3FF0490E026E010E3DECC3
:107FE8003FF0540E026E010E3DEC3FF0530E026E50
:087FF800010E3DEC3FF0FFD744
:020000040020DA
:08000000FFFFFFFFFFFFFFFF00
:020000040030CA
:0E000000FF02181EFF8181FF0FC00FE00F40AE
:00000001FF
