:020000040000FA
:0400000030EF00F0ED
:100018007B80D8CF01F0E8CF02F0E0CF03F0F2A464
:100028000ED0794A7A2A7ABE0AD07A5004E1640E50
:10003800795CD8A004D0000E7A6E000E796E000E9E
:10004800D76EFB0ED66EF29403C0E0FF02C0E8FF45
:0C00580001C0D8FF7B90100025EF0AF0DB
:1006000000434F4E544147454D3A20303000544945
:0B0610004D45523000253032640000E0
:10061C0045C0D9FF46C0DAFFDECFF6FFDDCFF7FFCE
:10062C000800F550250AD8A443D145C0D9FF46C0CF
:10063C00DAFFDE2A000EDD22000E746E000E736EE1
:10064C0073C077F074C078F075687668000E566EDB
:10065C00000E14D0778045C0D9FF46C0DAFFDE2AE1
:10066C00000EDD222ED07782F6D77784F4D77786EA
:10067C00F2D77788F0D7000E566E010E556E21D04A
:10068C0045C0D9FF46C0DAFFDECFF6FFDDCFF7FF5E
:10069C000800F550496E4A6A4A50000AD8A4EBD7B4
:1006AC004950200AD8B4E3D7030AD8B4E2D7080AD1
:1006BC00D8B4DBD7060AD8B4CDD71D0AD8B4D3D753
:1006CC00DAD755505610D8B4DBD777B0779245C0EF
:1006DC00D9FF46C0DAFFDECFF6FFDDCFF7FF08000B
:1006EC00F5502A0AD8A423D045C0D9FF46C0DAFF5A
:1006FC00DE2A000EDD2247C0D9FF48C0DAFFDFCF6B
:10070C0049F0020EDE26DFCF4AF0000EDD2249C092
:10071C00D9FF4AC0DAFFDECF73F0DDCF74F074AED0
:10072C003FD07780736C741ED8B0742A39D045C012
:10073C00D9FF46C0DAFFDECF0BF0DDCF0CF03DEC7D
:10074C0006F00BC073F00CC074F007D045C0D9FF95
:10075C0046C0DAFFDE2A000EDD22D00E496EFF0EF7
:10076C004A6E45C0D9FF46C0DAFFDECFF6FFDDCFBB
:10077C00F7FF0800F5504B6E4C6A49504B264A5017
:10078C004C224C5006E10A0E4B5CD8B002D0010E44
:10079C0001D0000E576E586A57505810D8A4D6D7AF
:1007AC0045C0D9FF46C0DAFFDECFF6FFDDCFF7FF3D
:1007BC000800F550640AD8B40DD045C0D9FF46C026
:1007CC00DAFFDECFF6FFDDCFF7FF0800F550690A40
:1007DC00D8A43FD045C0D9FF46C0DAFFDE2A000EB0
:1007EC00DD2247C0D9FF48C0DAFFDFCF49F0020E47
:1007FC00DE26DFCF4AF0000EDD2249C0D9FF4AC009
:10080C00DAFFDECF4DF0DDCF4EF0000E4EBEFF0E08
:10081C004F6E506E516E526E536E546E43C01FF03D
:10082C0044C020F04DC021F04EC022F04FC023F048
:10083C0050C024F051C025F052C026F053C027F010
:10084C0054C028F078EC04F01FC043F020C044F0F2
:10085C00120045C0D9FF46C0DAFFDECFF6FFDDCF70
:10086C00F7FF0800F550250AD8A416D045C0D9FFCB
:10087C0046C0DAFFDE2A000EDD22000E056E250EC4
:10088C00046E43C006F044C007F033EC08F0000ED1
:10089C00446E010E436E120045C0D9FF46C0DAFF0C
:1008AC00DE2A000EDD22000E446E000E436E120096
:1008BC0045C0D9FF46C0DAFFDECFF6FFDDCFF7FF2C
:1008CC000800F550046E056A43C006F044C007F0FA
:1008DC0033EC08F045C0D9FF46C0DAFFDE2A000E23
:1008EC00DD22D5D721C039F022C03AF023C03BF02D
:1008FC0024C03CF025C03DF026C03EF027C03FF0A0
:10090C0028C040F040AE02D0010E01D0000E376E70
:10091C00386A37503810D8B410D0401E3F1E3E1ED7
:10092C003D1E3C1E3B1E3A1E396C000E3A223B22E9
:10093C003C223D223E223F22402276AE779276BE6A
:10094C0005D0765008E17504D8B005D0000E346E91
:10095C00010E336E04D075C033F076C034F073C022
:10096C0035F074C036F037503810D8A402D077A4C4
:10097C0003D03506D8A03606000E426E1F0E416E0F
:10098C00000E00019F6F7CD04106D8A04206800E5D
:10099C004124D96E000E4220DA6E39C004F03AC000
:1009AC0005F03BC006F03CC007F03DC008F03EC06F
:1009BC0009F03FC00AF040C00BF00A0E0C6E000E9E
:1009CC000D6E000E0E6E000E0F6E000E106E000EF1
:1009DC00116E000E126E000E136EDDEC06F004C0EC
:1009EC0029F005C02AF006C02BF007C02CF008C077
:1009FC002DF009C02EF00AC02FF00BC030F029C02A
:100A0C0016F02BC017F0DFEC09F01650300FDF6E2C
:100A1C003306D8A034063506D8A0360639C004F003
:100A2C003AC005F03BC006F03CC007F03DC008F0F2
:100A3C003EC009F03FC00AF040C00BF00A0E0C6E2D
:100A4C00000E0D6E000E0E6E000E0F6E000E106E70
:100A5C00000E116E000E126E000E136E99EC05F066
:100A6C0004C039F005C03AF006C03BF007C03CF0BA
:100A7C0008C03DF009C03EF00AC03FF00BC040F08A
:100A8C0042BE1FD0425003E14104D8A01AD03950C5
:100A9C003A103B103C103D103E103F104010D8A4B3
:100AAC0073D734BE05D0345002E13304D8B06CD7C0
:100ABC0036BE07D0365003E13504D8A002D077B249
:100ACC0063D737503810D8A402D077A417D041067A
:100ADC00D8A0420637503810D8A404D0000E326E7D
:100AEC002B0E03D0000E326E2D0E316E800E412473
:100AFC00D96E000E4220DA6E31C0DFFF1FC014F039
:100B0C0020C015F0800E4124166E000E4220176E88
:100B1C0035C018F036C019F083EC08F014C01FF083
:100B2C0015C020F01200000E156E13AE12D0131E5D
:100B3C00121E111E101E0F1E0E1E0D1E0C6C000E12
:100B4C000D220E220F221022112212221322010E2C
:100B5C00156E0BAE12D00B1E0A1E091E081E071EA8
:100B6C00061E051E046C000E052206220722082212
:100B7C0009220A220B22010E151A20EE16F0070E7E
:100B8C00DE6AE806FDE20C500D100E100F1010106E
:100B9C00111012101310D8B446D0010E146E0AD0D6
:100BAC00D8900C360D360E360F36103611361236EE
:100BBC001336142A13AEF4D7D890163617361836C7
:100BCC0019361A361B361C361D360C50045C0D506B
:100BDC0005580E5006580F50075810500858115011
:100BEC00095812500A5813500B58D8A011D00C5059
:100BFC00045E0D50055A0E50065A0F50075A1050ED
:100C0C00085A1150095A12500A5A13500B5A16808E
:100C1C00D89013321232113210320F320E320D3292
:100C2C000C32142EC9D71550D8B410D01D1E1C1E52
:100C3C001B1E1A1E191E181E171E166C000E1722CC
:100C4C00182219221A221B221C221D2216C004F063
:100C5C0017C005F018C006F019C007F01AC008F04C
:100C6C001BC009F01CC00AF01DC00BF01200000ED6
:100C7C00196E000E186E000E126E000E116E02D060
:100C8C000B4A0C2A010E176E0BC0F6FF0CC0F7FFB7
:100C9C000800F550200AD8B418D0F70E0D6EFF0ED0
:100CAC000E6E0BC0F6FF0CC0F7FF0800F5500F6E70
:100CBC00106A0D500F260E501022105004E1050E34
:100CCC000F5CD8A002D0000E176E17C013F0146A78
:100CDC0013501410D8B408D0D3D7000E126E010ED6
:100CEC00116E0B4A0C2A2ED00BC0F6FF0CC0F7FF6E
:100CFC000800F5500D6E0E6A0E50000AD8A422D0D2
:100D0C000D502B0AD8B4EDD7060AD8B4E6D71AD0B2
:100D1C0018C004F019C005F0000E076E0A0E066E1E
:100D2C0038EC0AF00BC0F6FF0CC0F7FF0800F550CA
:100D3C00045E000E055A300E0424186E000E0520B9
:100D4C00196ECFD7D00E0D6EFF0E0E6E0BC0F6FFC8
:100D5C000CC0F7FF0800F5500F6E106A0D500F26EF
:100D6C000E501022105006E10A0E0F5CD8B002D0C3
:100D7C00010E01D0000E156E166A15501610D8A46F
:100D8C00C7D711501210D8A40DD018C00DF019C02F
:100D9C000EF00D1E0E1E0D4A0E2A0DC00BF00EC0CD
:100DAC000CF0120018C00BF019C00CF01200000E61
:100DBC00156E0BAE12D00B1E0A1E091E081E071E46
:100DCC00061E051E046C000E0522062207220822B0
:100DDC0009220A220B22010E156E13AE10D0131E1F
:100DEC00121E111E101E0F1E0E1E0D1E0C6C000E60
:100DFC000D220E220F2210221122122213220C502D
:100E0C000D100E100F101010111012101310D8B46A
:100E1C003CD0010E146E0AD0D8900C360D360E361E
:100E2C000F361036113612361336142A13AEF4D789
:100E3C000C50045C0D5005580E5006580F500758B6
:100E4C00105008581150095812500A5813500B588A
:100E5C00D8A010D00C50045E0D50055A0E50065AF6
:100E6C000F50075A1050085A1150095A12500A5A6A
:100E7C0013500B5AD89013321232113210320F32E7
:100E8C000E320D320C32142ED3D71550D8B410D0DC
:100E9C000B1E0A1E091E081E071E061E051E046CCC
:100EAC00000E052206220722082209220A220B2202
:100EBC0004C004F005C005F006C006F007C007F03A
:100ECC0008C008F009C009F00AC00AF00BC00BF00A
:100EDC001200076E100E046E07505AEC0AF0066EE4
:100EEC00063A83500618EF0B0618836E200E046E1C
:100EFC0007505AEC0AF0066E063A0646835006185E
:100F0C00DF0B0618836E400E046E07505AEC0AF085
:100F1C00066E063A0646064683500618BF0B0618A0
:100F2C00836E800E046E07505AEC0AF0066E063281
:100F3C000632835006187F0B0618836E84828492C7
:100F4C00420EE82EFED700D0010E046E07505AEC6C
:100F5C000AF0066E063A83500618EF0B0618836EDD
:100F6C00020E046E07505AEC0AF0066E063A06465C
:100F7C0083500618DF0B0618836E040E046E0750A0
:100F8C005AEC0AF0066E063A0646064683500618D8
:100F9C00BF0B0618836E080E046E07505AEC0AF04D
:100FAC00066E06320632835006187F0B0618836EC7
:100FBC00848284921200939081900F0EC16EA00EC9
:100FCC00F26EE00ED56E000ED76EFB0ED66ECEEC2A
:100FDC0008F0060E0A6E0E0E0B6E060E0C6E010E4F
:100FEC0016EC09F0030E0A6E010E0B6E060E0C6E5B
:100FFC00020E16EC09F0060E0001B16F130EB06F65
:10100C00AD0EE82EFED7B02FFCD7B12FFAD700D0FB
:10101C0081A002D0010E01D0000EFF0A0001B06FBA
:10102C008150B019FE0BB019816EA00E616E000ECE
:10103C00626E150E636E060E646E79C065F07AC032
:10104C0066F07DEC09F00D0E0A6EA00E0B6E000E14
:10105C000C6E020E16EC09F0CED706500710D8B461
:10106C0004D006500710D8A404D0045064EC0AF045
:10107C00120020EE04F00650D9260750DA22DE507A
:10108C00DE10D8B416D020EE04F00650D926075046
:10109C00DA2210EE02F00650E1260750E222DE5072
:1010AC00E65CE650800A0C6EDE50800A0C58D8B014
:1010BC00120020EE02F00650D9260750DA22DECFBD
:1010CC0008F0DDCF09F006C0D9FF07C0DAFFDECF8C
:1010DC000AF0DDCF0BF008500A24D96E09500B2012
:1010EC00DA6E04C0DFFF20EE02F00650D92607505E
:1010FC00DA22DE2A000EDD22120077A00AD016C0FA
:10110C000DF017C00EF014C00FF015C010F0C3ECAA
:10111C0009F019BE05D018C01DF019C01EF004D07E
:10112C00000E1E6E000E1D6E000E1C6E000E1B6E51
:10113C000CD0000E056E200E046E14C006F015C007
:10114C0007F033EC08F01B4A1C2A1D501B5C1C508A
:10115C00800A1A6E1E50800A1A58D8A0EAD777B0A7
:10116C000AD016C00DF017C00EF014C00FF015C049
:10117C0010F0C3EC09F016C004F017C005F010EC29
:10118C000AF01D500424146E1E500520156E12001A
:10119C00000E956E96929690000E836E84908492BB
:1011AC00270E086EF50EE82EFED7082EFCD700F0A1
:1011BC00000E096E300E6FEC07F00D0E086EFC0E73
:1011CC00E82EFED7082EFCD7092A020E0964F2D7A6
:1011DC00020E6FEC07F01A0EE82EFED700D0280E88
:1011EC006FEC07F01A0EE82EFED700D0010E6FEC54
:1011FC0007F0060E086E300EE82EFED7082EFCD730
:10120C0000D00C0E6FEC07F01A0EE82EFED700D0B3
:10121C00060E6FEC07F01A0EE82EFED700D0120067
:10122C000E6E0E04D8A403D00A507F0F06D0020E07
:10123C000E18D8A403D00A50BF0F0D6E0DC008F0C5
:10124C00000E4BEC0AF016D00BC0F6FF0CC0F7FFEB
:10125C00F86A050EF76403D00800F55005D0F6CFF8
:10126C00E1FFF7CFE2FFE750086E010E4BEC0AF0FE
:10127C000B4A0C2A0BC0F6FF0CC0F7FFF86A050EE0
:10128C00F76403D00800F55005D0F6CFE1FFF7CF97
:10129C00E2FFE7500009D8B41200D6D75BC05FF06C
:1012AC005CC060F0000E726E000E716E12D059C0F0
:1012BC0043F05AC044F05F0E456E000E466E5DC0A2
:1012CC0047F05EC048F00EEC03F0435071264450DA
:1012DC0072225FC0F6FF60C0F7FF0800F5500009EE
:1012EC00D8A4E5D771C059F072C05AF01200650E3F
:1012FC00696E000E6A6E61C06BF062C06CF0000E1D
:10130C006E6E000E6D6E000E706E000E6F6E6B0EBC
:10131C00596E000E5A6E63C05BF064C05CF0690ECF
:10132C005D6E000E5E6E54EC09F06D506124D96E4A
:10133C006E506220DA6E000EDF6E1200010E0A6E25
:10134C00200E04180510D8B414D0F70E066EFF0E3C
:10135C00076E04C008F005C009F0065008260750B7
:10136C000922095004E1050E085CD8A002D0000E39
:10137C000A6E0AC004F0056A1200000E136E000E0D
:10138C00126E0BD011C004F0056A0FC006F010C02D
:10139C0007F033EC08F0124A132A12500D24D96EC0
:1013AC0013500E20DA6EDF50116E1150D8B41200AB
:1013BC00E9D717BE05D0175010E11604D8B00DD0E0
:1013CC0016C018F017C019F0181E191E184A192A41
:1013DC0018C016F019C017F0120016C016F017C07E
:1013EC0017F01200D00E066EFF0E076E04C008F048
:1013FC0005C009F00650082607500922095006E1DD
:10140C000A0E085CD8B002D0010E01D0000E046E9A
:10141C00056A120004C006F005C007F002D0044AA9
:10142C00052A04C0D9FF05C0DAFFDF50D8A4F7D7CE
:10143C000650045C046E07500558056E120000EE51
:10144C0080F0300EEE6AE806FDE100EE71F00A0E57
:10145C00EE6AE806FDE17B907B92000EF86E0001CF
:10146C00E1EF07F004500602F3CF08F0F4CF09F0D7
:10147C0004500702F350092605500602F3500926C2
:10148C0008C004F009C005F01200096E09B002D0C2
:10149C00849001D08480420EE82EFED700D0849236
:1014AC0008506FEC07F01200056E0550041400098B
:0E14BC00D8B402D0010E1200000E1200120071
:020000040020DA
:08000000FFFFFFFFFFFFFFFF00
:020000040030CA
:0E000000FF02181EFF8181FF0FC00FE00F40AE
:00000001FF
