:04000000E4EF3CF0FD
:1079B4003F0006005B004F0066006D007D0007007D
:1079C4007F006F00B40EF66E790EF76E000EF86E3F
:1079D40000EE01F010EE14F00900F5CFEEFFE550D3
:1079E400E150FAE100EE24F00C0EEE6AE806FDE147
:1079F40000015BEF3DF0000E1A6E800E196E1950F7
:107A04001514176E1A501614186E17501810D8B48F
:107A14000EEF3DF010EF3DF013EF3DF0848014EFD6
:107A24003DF0849084828492D8901A30176E193075
:107A3400196E17C01AF019501A10D8A424EF3DF08B
:107A440026EF3DF001EF3DF08484849412001E5033
:107A54001F10D8B430EF3DF032EF3DF056EF3DF05B
:107A6400010E206E3AEF3DF0D8901E361F36202AC4
:107A74001FAE3FEF3DF041EF3DF036EF3DF01E50BD
:107A84001C5C1F501D58D8A04AEF3DF04CEF3DF050
:107A940050EF3DF01E501C5E1F501D5AD8901F32EF
:107AA4001E32202E41EF3DF01CC01CF01DC01DF005
:107AB40012000F0EC16E000E966E000E846E000E44
:107AC400956E2E4A2F2A2F5009E1320E2E5CD8A033
:107AD4006EEF3DF070EF3DF085EF3DF02C4A2D2A1E
:107AE400100E2C5C270E2D58D8A07BEF3DF07DEFB7
:107AF4003DF081EF3DF0000E2D6E000E2C6E000E59
:107B04002F6E000E2E6E2CC021F02DC022F0C9EC79
:107B14003DF063EF3DF000EF00F0000E1A6E000E32
:107B2400196E17501810D8B49AEF3DF09CEF3DF041
:107B3400C4EF3DF0010E1B6EA4EF3DF0D890173654
:107B440018361B2A18AEA9EF3DF0ABEF3DF0A0EFBD
:107B54003DF0D89019361A361750155C185016583F
:107B6400D8A0B7EF3DF0B9EF3DF0BEEF3DF01750B0
:107B7400155E1850165A1980D890183217321B2ED9
:107B8400ABEF3DF019C015F01AC016F0120021C079
:107B940015F022C016F0030E186EE80E176E8FEC67
:107BA4003DF015C02AF016C02BF0000E186E640EBE
:107BB400176E21C015F022C016F08FEC3DF015C0F1
:107BC4001CF016C01DF0000E1F6E0A0E1E6E29EC6E
:107BD4003DF01CC028F01DC029F0000E186E0A0EDE
:107BE400176E21C015F022C016F08FEC3DF015C0C1
:107BF4001CF016C01DF0000E1F6E0A0E1E6E29EC3E
:107C04003DF01CC026F01DC027F021C01CF022C08E
:107C14001DF0000E1F6E0A0E1E6E29EC3DF01CC0F6
:107C240024F01DC025F00F0E836ED8902A34D96E2F
:107C34002B34DA6E010ED926000EDA22DECF15F0CF
:107C4400DDCF16F0FDEC3CF00E0E836E0D0E236EB0
:107C5400FC0EE82EFED7232EFCD70F0E836ED89091
:107C64002834D96E2934DA6E010ED926000EDA22B0
:107C7400DECF15F0DDCF16F0FDEC3CF00D0E836E7B
:107C84000D0E236EFC0EE82EFED7232EFCD70F0E0E
:107C9400836ED8902634D96E2734DA6E010ED92635
:107CA400000EDA22DECF15F0DDCF16F0FDEC3CF04D
:107CB4000B0E836E0D0E236EFC0EE82EFED7232EC4
:107CC400FCD70F0E836ED8902434D96E2534DA6E27
:107CD400010ED926000EDA22DECF15F0DDCF16F024
:107CE400FDEC3CF0070E836E0D0E236EFC0EE82EA9
:087CF400FED7232EFCD712007D
:020000040020DA
:08000000FFFFFFFFFFFFFFFF00
:020000040030CA
:0E000000FF02181EFF8181FF0FC00FE00F40AE
:00000001FF
