:020000040000FA
:0400000007EF00F016
:0A0008007A820AED0AF036EF0AF0E2
:100600000054494D455231002530326400303000ED
:0106100000E9
:1006120042C0D9FF43C0DAFFDECFF6FFDDCFF7FFDE
:100622000800F550250AD8A443D142C0D9FF43C0DF
:10063200DAFFDE2A000EDD22000E736E000E726EED
:1006420072C076F073C077F074687568000E536EEE
:10065200000E14D0768042C0D9FF43C0DAFFDE2AF2
:10066200000EDD222ED07682F6D77684F4D77686F7
:10067200F2D77688F0D7000E536E010E526E21D05B
:1006820042C0D9FF43C0DAFFDECFF6FFDDCFF7FF6E
:100692000800F550466E476A4750000AD8A4EBD7C7
:1006A2004650200AD8B4E3D7030AD8B4E2D7080ADE
:1006B200D8B4DBD7060AD8B4CDD71D0AD8B4D3D75D
:1006C200DAD752505310D8B4DBD776B0769242C004
:1006D200D9FF43C0DAFFDECFF6FFDDCFF7FF080018
:1006E200F5502A0AD8A423D042C0D9FF43C0DAFF6A
:1006F200DE2A000EDD2244C0D9FF45C0DAFFDFCF7B
:1007020046F0020EDE26DFCF47F0000EDD2246C0A5
:10071200D9FF47C0DAFFDECF72F0DDCF73F073AEE0
:100722003FD07680726C731ED8B0732A39D042C023
:10073200D9FF43C0DAFFDECF08F0DDCF09F038EC95
:1007420006F008C072F009C073F007D042C0D9FFAA
:1007520043C0DAFFDE2A000EDD22D00E466EFF0E07
:10076200476E42C0D9FF43C0DAFFDECFF6FFDDCFCE
:10077200F7FF0800F550486E496A46504826475030
:100782004922495006E10A0E485CD8B002D0010E57
:1007920001D0000E546E556A54505510D8A4D6D7C5
:1007A20042C0D9FF43C0DAFFDECFF6FFDDCFF7FF4D
:1007B2000800F550640AD8B40DD042C0D9FF43C036
:1007C200DAFFDECFF6FFDDCFF7FF0800F550690A4A
:1007D200D8A43FD042C0D9FF43C0DAFFDE2A000EC0
:1007E200DD2244C0D9FF45C0DAFFDFCF46F0020E5A
:1007F200DE26DFCF47F0000EDD2246C0D9FF47C01C
:10080200DAFFDECF4AF0DDCF4BF0000E4BBEFF0E1B
:100812004C6E4D6E4E6E4F6E506E516E40C01CF05F
:1008220041C01DF04AC01EF04BC01FF04CC020F06A
:100832004DC021F04EC022F04FC023F050C024F032
:1008420051C025F073EC04F01CC040F01DC041F013
:10085200120042C0D9FF43C0DAFFDECFF6FFDDCF80
:10086200F7FF0800F550250AD8A416D042C0D9FFD8
:1008720043C0DAFFDE2A000EDD22000E026E250ED4
:10088200016E40C003F041C004F02DEC08F0000EF0
:10089200416E010E406E120042C0D9FF43C0DAFF22
:1008A200DE2A000EDD22000E416E000E406E1200A6
:1008B20042C0D9FF43C0DAFFDECFF6FFDDCFF7FF3C
:1008C2000800F550016E026A40C003F041C004F016
:1008D2002DEC08F042C0D9FF43C0DAFFDE2A000E39
:1008E200DD22D5D71EC036F01FC037F020C038F049
:1008F20021C039F022C03AF023C03BF024C03CF0C2
:1009020025C03DF03DAE02D0010E01D0000E346E86
:10091200356A34503510D8B410D03D1E3C1E3B1EF3
:100922003A1E391E381E371E366C000E3722382208
:1009320039223A223B223C223D2275AE769275BE86
:1009420005D0755008E17404D8B005D0000E316EA0
:10095200010E306E04D074C030F075C031F072C038
:1009620032F073C033F034503510D8A402D076A4DC
:1009720003D03206D8A03306000E3F6E1F0E3E6E25
:10098200000E00019F6F7CD03E06D8A03F06800E6D
:100992003E24D96E000E3F20DA6E36C001F037C019
:1009A20002F038C003F039C004F03AC005F03BC091
:1009B20006F03CC007F03DC008F00A0E096E000EBA
:1009C2000A6E000E0B6E000E0C6E000E0D6E000E07
:1009D2000E6E000E0F6E000E106ED8EC06F001C007
:1009E20026F002C027F003C028F004C029F005C099
:1009F2002AF006C02BF007C02CF008C02DF026C04C
:100A020013F028C014F0D9EC09F01350300FDF6E48
:100A12003006D8A031063206D8A0330636C001F01F
:100A220037C002F038C003F039C004F03AC005F014
:100A32003BC006F03CC007F03DC008F00A0E096E4C
:100A4200000E0A6E000E0B6E000E0C6E000E0D6E86
:100A5200000E0E6E000E0F6E000E106E94EC05F07E
:100A620001C036F002C037F003C038F004C039F0DC
:100A720005C03AF006C03BF007C03CF008C03DF0AC
:100A82003FBE1FD03F5003E13E04D8A01AD03650DB
:100A92003710381039103A103B103C103D10D8A4D2
:100AA20073D731BE05D0315002E13004D8B06CD7D3
:100AB20033BE07D0335003E13204D8A002D076B25D
:100AC20063D734503510D8A402D076A417D03E068E
:100AD200D8A03F0634503510D8A404D0000E2F6E93
:100AE2002B0E03D0000E2F6E2D0E2E6E800E3E2486
:100AF200D96E000E3F20DA6E2EC0DFFF1CC011F04F
:100B02001DC012F0800E3E24136E000E3F20146EA4
:100B120032C015F033C016F07DEC08F011C01CF0A5
:100B220012C01DF01200000E126E10AE12D0101E76
:100B32000F1E0E1E0D1E0C1E0B1E0A1E096C000E31
:100B42000A220B220C220D220E220F221022010E4B
:100B5200126E08AE12D0081E071E061E051E041EC7
:100B6200031E021E016C000E022203220422052231
:100B7200062207220822010E121A20EE13F0070E97
:100B8200DE6AE806FDE209500A100B100C100D1087
:100B92000E100F101010D8B446D0010E116E0AD0EC
:100BA200D89009360A360B360C360D360E360F360D
:100BB2001036112A10AEF4D7D890133614361536E3
:100BC20016361736183619361A360950015C0A508D
:100BD20002580B5003580C5004580D5005580E5033
:100BE20006580F50075810500858D8A011D0095075
:100BF200015E0A50025A0B50035A0C50045A0D500F
:100C0200055A0E50065A0F50075A1050085A1380B0
:100C1200D89010320F320E320D320C320B320A32B1
:100C22000932112EC9D71250D8B410D01A1E191E6B
:100C3200181E171E161E151E141E136C000E1422EB
:100C4200152216221722182219221A2213C001F085
:100C520014C002F015C003F016C004F017C005F06E
:100C620018C006F019C007F01AC008F01200000EF2
:100C7200166E000E156E000E0F6E000E0E6E02D076
:100C8200084A092A010E146E08C0F6FF09C0F7FFD0
:100C92000800F550200AD8B418D0F70E0A6EFF0EDD
:100CA2000B6E08C0F6FF09C0F7FF0800F5500C6E86
:100CB2000D6A0A500C260B500D220D5004E1050E50
:100CC2000C5CD8A002D0000E146E14C010F0116A91
:100CD20010501110D8B408D0D3D7000E0F6E010EE9
:100CE2000E6E084A092A2ED008C0F6FF09C0F7FF87
:100CF2000800F5500A6E0B6A0B50000AD8A422D0E5
:100D02000A502B0AD8B4EDD7060AD8B4E6D71AD0BF
:100D120015C001F016C002F0000E046E0A0E036E3A
:100D220049EC0AF008C0F6FF09C0F7FF0800F550C9
:100D3200015E000E025A300E0124156E000E0220D2
:100D4200166ECFD7D00E0A6EFF0E0B6E08C0F6FFDE
:100D520009C0F7FF0800F5500C6E0D6A0A500C2608
:100D62000B500D220D5006E10A0E0C5CD8B002D0D9
:100D7200010E01D0000E126E136A12501310D8A485
:100D8200C7D70E500F10D8A40DD015C00AF016C048
:100D92000BF00A1E0B1E0A4A0B2A0AC008F00BC0EF
:100DA20009F0120015C008F016C009F01200000E7A
:100DB200126E08AE12D0081E071E061E051E041E65
:100DC200031E021E016C000E0222032204220522CF
:100DD200062207220822010E126E10AE10D0101E3B
:100DE2000F1E0E1E0D1E0C1E0B1E0A1E096C000E7F
:100DF2000A220B220C220D220E220F22102209504F
:100E02000A100B100C100D100E100F101010D8B489
:100E12003CD0010E116E0AD0D89009360A360B3634
:100E22000C360D360E360F361036112A10AEF4D7A8
:100E32000950015C0A5002580B5003580C500458D8
:100E42000D5005580E5006580F50075810500858AC
:100E5200D8A010D00950015E0A50025A0B50035A12
:100E62000C50045A0D50055A0E50065A0F50075A8C
:100E72001050085AD89010320F320E320D320C3206
:100E82000B320A320932112ED3D71250D8B410D0F5
:100E9200081E071E061E051E041E031E021E016CEE
:100EA200000E022203220422052206220722082221
:100EB20001C001F002C002F003C003F004C004F05C
:100EC20005C005F006C006F007C007F008C008F02C
:100ED2001200046E100E016E04506BEC0AF0036EE9
:100EE200033A83500318EF0B0318836E200E016E32
:100EF20004506BEC0AF0036E033A03468350031866
:100F0200DF0B0318836E400E016E04506BEC0AF087
:100F1200036E033A0346034683500318BF0B0318BC
:100F2200836E800E016E04506BEC0AF0036E033286
:100F32000332835003187F0B0318836E84828492DA
:100F4200420EE82EFED700D0010E016E04506BEC6B
:100F52000AF0036E033A83500318EF0B0318836EF3
:100F6200020E016E04506BEC0AF0036E033A034664
:100F720083500318DF0B0318836E040E016E0450B6
:100F82006BEC0AF0036E033A0346034683500318E0
:100F9200BF0B0318836E080E016E04506BEC0AF04F
:100FA200036E03320332835003187F0B0318836EE0
:100FB200848284921200000E936E000E816E0F0ED8
:100FC200C16EC00EF26E070ECD6E9D80CF68F40E1C
:100FD200CE6EC8EC08F0060E076E010E086E060E05
:100FE200096E010E10EC09F0080E076E0D0E086E68
:100FF200060E096E020E10EC09F0060E6F6E130E4D
:101002006E6EAE0EE82EFED76E2EFCD76F2EFAD77E
:1010120081A002D0010E01D0000EFF0A6E6E815037
:101022006E18FE0B6E18816EA00E5E6E000E5F6E65
:10103200080E606E060E616E78C062F079C063F0D1
:1010420077EC09F0080E076EA00E086E000E096E0E
:10105200020E10EC09F0D1D703500410D8B404D01A
:1010620003500410D8A404D0015075EC0AF0120009
:1010720020EE04F00350D9260450DA22DE50DE10AE
:10108200D8B416D020EE04F00350D9260450DA2248
:1010920010EE02F00350E1260450E222DE50E65C3C
:1010A200E650800A096EDE50800A0958D8B0120054
:1010B20020EE02F00350D9260450DA22DECF05F0EA
:1010C200DDCF06F003C0D9FF04C0DAFFDECF07F0A0
:1010D200DDCF08F005500724D96E06500820DA6EDD
:1010E20001C0DFFF20EE02F00350D9260450DA22BD
:1010F200DE2A000EDD22120076A00AD013C00AF00A
:1011020014C00BF011C00CF012C00DF0BDEC09F0D0
:1011120016BE05D015C01AF016C01BF004D0000E82
:101122001B6E000E1A6E000E196E000E186E0CD099
:10113200000E026E200E016E11C003F012C004F008
:101142002DEC08F0184A192A1A50185C1950800A16
:10115200176E1B50800A1758D8A0EAD776B00AD06B
:1011620013C00AF014C00BF011C00CF012C00DF045
:10117200BDEC09F013C001F014C002F021EC0AF03A
:101182001A500124116E1B500220126E1200000E22
:10119200956E96929690000E836E84908492270E9E
:1011A200056EF50EE82EFED7052EFCD700F0000ED8
:1011B200066E300E6AEC07F00D0E056EFC0EE82E80
:1011C200FED7052EFCD7062A020E0664F2D7020EBF
:1011D2006AEC07F01A0EE82EFED700D0280E6AEC51
:1011E20007F01A0EE82EFED700D0010E6AEC07F0C7
:1011F200060E056E300EE82EFED7052EFCD700D067
:101202000C0E6AEC07F01A0EE82EFED700D0060E7E
:101212006AEC07F01A0EE82EFED700D012000B6E11
:101222000B04D8A403D007507F0F06D0020E0B1870
:10123200D8A403D00750BF0F0A6E0AC005F0000EF3
:101242005CEC0AF016D008C0F6FF09C0F7FFF86A96
:10125200050EF76403D00800F55005D0F6CFE1FF84
:10126200F7CFE2FFE750056E010E5CEC0AF0084A88
:10127200092A08C0F6FF09C0F7FFF86A050EF764ED
:1012820003D00800F55005D0F6CFE1FFF7CFE2FF1B
:10129200E7500009D8B41200D6D758C05CF059C044
:1012A2005DF0000E716E000E706E12D056C040F0EE
:1012B20057C041F05C0E426E000E436E5AC044F0BD
:1012C2005BC045F009EC03F040507026415071229A
:1012D2005CC0F6FF5DC0F7FF0800F5500009D8A416
:1012E200E5D770C056F071C057F01200620E666EFC
:1012F200000E676E5EC068F05FC069F0000E6B6E34
:10130200000E6A6E000E6D6E000E6C6E680E566EEA
:10131200000E576E60C058F061C059F0660E5A6EEA
:10132200000E5B6E4EEC09F06A505E24D96E6B5073
:101332005F20DA6E000EDF6E1200010E076E200EC5
:1013420001180210D8B414D0F70E036EFF0E046E0B
:1013520001C005F002C006F0035005260450062223
:10136200065004E1050E055CD8A002D0000E076EFF
:1013720007C001F0026A1200000E106E000E0F6E1E
:101382000BD00EC001F0026A0CC003F00DC004F0D5
:101392002DEC08F00F4A102A0F500A24D96E105073
:1013A2000B20DA6EDF500E6E0E50D8B41200E9D761
:1013B20014BE05D0145010E11304D8B00DD013C0E0
:1013C20015F014C016F0151E161E154A162A15C061
:1013D20013F016C014F0120013C013F014C014F06E
:1013E2001200D00E036EFF0E046E01C005F002C0A3
:1013F20006F00350052604500622065006E10A0EA6
:10140200055CD8B002D0010E01D0000E016E026A56
:10141200120006009EA012D0784A792A79BE0AD01C
:10142200795004E1640E785CD8A004D0000E796E85
:10143200000E786ECF68F40ECE6E9E907A921100F6
:1014420001C003F002C004F002D0014A022A01C026
:10145200D9FF02C0DAFFDF50D8A4F7D70350015CEE
:10146200016E04500258026E120000EE80F0300E3F
:10147200EE6AE806FDE100EE70F00A0EEE6AE8069A
:10148200FDE17A907A92000EF86E0001DCEF07F02F
:1014920001500302F3CF05F0F4CF06F0015004022D
:1014A200F350062602500302F350062605C001F04F
:1014B20006C002F01200066E06B002D0849001D07F
:1014C2008480420EE82EFED700D0849205506AEC4A
:1014D20007F01200026E025001140009D8B402D0C3
:0A14E200010E1200000E12001200AD
:020000040020DA
:08000000FFFFFFFFFFFFFFFF00
:020000040030CA
:0E000000FF02181EFF8181FF0FC00FE00F40AE
:00000001FF
