:04000000B4EF00F069
:100018003E80D8CF09F0E8CF0AF0E0CF0BF0D9CF77
:100028000CF0DACF0DF0F2A41CEF00F01EEF00F098
:10003800A3EF00F03C4A3D2A3D5009E1050E3C5C27
:10004800D8A029EF00F02BEF00F085EF00F0000EAC
:100058003D6E010E3C6E85EF00F00F0E836ED8905A
:100068003834D96E3934DA6E1E0ED926000EDA22EB
:10007800DECF01F0DDCF02F0A5EC01F00E0E836EAD
:10008800A3EF00F00F0E836ED8903634D96E373454
:10009800DA6E1E0ED926000EDA22DECF01F0DDCF91
:1000A80002F0A5EC01F00D0E836EA3EF00F00F0E29
:1000B800836ED8903434D96E3534DA6E1E0ED92654
:1000C800000EDA22DECF01F0DDCF02F0A5EC01F060
:1000D8000B0E836EA3EF00F00F0E836ED8903234B0
:1000E800D96E3334DA6E1E0ED926000EDA22DECF30
:1000F80001F0DDCF02F0A5EC01F0070E836EA3EF4F
:1001080000F03CC007F03DC008F00850000AD8B421
:1001180090EF00F0A3EF00F00750010AD8B431EFD8
:1001280000F0030AD8B446EF00F0010AD8B45BEF38
:1001380000F0070AD8B470EF00F0A3EF00F0000E4B
:10014800D76E1F0ED66EF2940DC0DAFF0CC0D9FF21
:100158000BC0E0FF0AC0E8FF09C0D8FF3E901000BE
:10016800D1EF01F01AC00EF01BC00FF0030E116E94
:10017800E80E106E03EC01F00EC038F00FC039F035
:10018800000E116E640E106E1AC00EF01BC00FF038
:1001980003EC01F00EC015F00FC016F0000E186E3B
:1001A8000A0E176E73EC01F015C036F016C037F062
:1001B800000E116E0A0E106E1AC00EF01BC00FF062
:1001C80003EC01F00EC015F00FC016F0000E186E0B
:1001D8000A0E176E73EC01F015C034F016C035F036
:1001E8001AC015F01BC016F0000E186E0A0E176E16
:1001F80073EC01F015C032F016C033F01200000E97
:10020800136E000E126E10501110D8B40EEF01F0DC
:1002180010EF01F038EF01F0010E146E18EF01F045
:10022800D89010361136142A11AE1DEF01F01FEFC9
:1002380001F014EF01F0D8901236133610500E5C0E
:1002480011500F58D8A02BEF01F02DEF01F032EF2D
:1002580001F010500E5E11500F5A1280D8901132D2
:100268001032142E1FEF01F012C00EF013C00FF061
:1002780012000F0EC16E000E966E000E846E000EF8
:10028800956EA00EF26EC50ED56E000ED76E1F0EBF
:10029800D66E3A4A3B2A100E3A5C270E3B58D8A035
:1002A80058EF01F05AEF01F05EEF01F0000E3B6EDF
:1002B800000E3A6E3AC01AF03BC01BF0B6EC00F0E4
:1002C8000B0E1D6E260E1C6E5E0EE82EFED71C2E23
:1002D800FCD71D2EFAD74DEF01F0B4EF00F0175000
:1002E8001810D8B47AEF01F07CEF01F0A0EF01F01C
:1002F800010E196E84EF01F0D89017361836192AB6
:1003080018AE89EF01F08BEF01F080EF01F0175084
:10031800155C18501658D8A094EF01F096EF01F02C
:100328009AEF01F01750155E1850165AD8901832E7
:100338001732192E8BEF01F015C015F016C016F004
:100348001200000E066E800E056E05500114036E35
:1003580006500214046E03500410D8B4B6EF01F02E
:10036800B8EF01F0BBEF01F08480BCEF01F084909E
:1003780084828492D8900630036E0530056E03C0DF
:1003880006F005500610D8A4CCEF01F0CEEF01F02E
:10039800A9EF01F0848484941200DC0EF66E030E3B
:1003A800F76E000EF86E00EE1EF010EE14F0090065
:1003B800F5CFEEFFE550E150FAE100EE32F00C0E19
:1003C800EE6AE806FDE13E903E92000EF86E0001EE
:1003D8003DEF01F03F0006005B004F0066006D0036
:0803E8007D0007007F006F009B
:020000040020DA
:08000000FFFFFFFFFFFFFFFF00
:020000040030CA
:0E000000FF02181EFF8181FF0FC00FE00F40AE
:00000001FF
