:020000040000FA
:0400000091EF3FF04D
:107F2200000194EF3FF0000E936E000E8A6E000E79
:107F3200046E000E036E000E8A6E020E026E040EB6
:107F4200016EBA0EE82EFED7012EFCD7022EFAD70A
:107F520000D08A68020E026E040E016EBA0EE82E7E
:107F6200FED7012EFCD7022EFAD700D0034A042AEC
:107F720004BEE1D7045004E1050E035CD8A0DBD7B0
:107F8200010E8A6E000E046E000E036E020E026E69
:107F9200040E016EBA0EE82EFED7012EFCD7022E79
:107FA200FAD700D08A508A248A6E034A042A04BE71
:107FB200EDD7045004E1080E035CD8A0E7D7800E89
:107FC2008A6E000E046E000E036E020E026E040E26
:107FD200016EBA0EE82EFED7012EFCD7022EFAD77A
:107FE20000D0D8908A308A6E034A042A04BEEDD7A4
:0E7FF20004509DE1080E035CD8B099D7E6D785
:020000040020DA
:08000000FFFFFFFFFFFFFFFF00
:020000040030CA
:0E000000FF02181EFF8181FF0FC00FE00F40AE
:00000001FF
