:020000040000FA
:04000000B7EF3FF027
:107F6E000001BAEF3FF0000E936E000E816E93800B
:107F7E009480928881A010D081AA02D0010E01D0E7
:107F8E00000EFF0A016E013A014681500118DF0B07
:107F9E000118816E81B0FED782A011D081AC02D0C3
:107FAE00010E01D0000EFF0A016E013A0146014694
:107FBE0081500118BF0B0118816E82B0FED780A8C8
:107FCE0010D081AE02D0010E01D0000EFF0A016E5C
:107FDE0001320132815001187F0B0118816E80B879
:107FEE00FED7820E016EDE0EE82EFED7012EFCD7D6
:027FFE00C1D7E9
:020000040020DA
:08000000FFFFFFFFFFFFFFFF00
:020000040030CA
:0E000000FF02181EFF8181FF0FC00FE00F40AE
:00000001FF
