:020000040000FA
:0400000007EF00F016
:0A0008007B8233ED17F001EF19F0D1
:1006000000436F6E76657273616F20412F443A200C
:1006100043616E61697320414E30206520414E3147
:100620000D0A0054656D703A2025302E3166204346
:10063000202D20566F6C743A202530346C75206D57
:10064000560D0A00494E46004E414E00696E660046
:0B0650006E616E006C66006C750000AF
:10065C00000E00019B6F000E9A6F5AC0ACF05BC08D
:10066C00ADF05CC0AEF05DC0AFF0AFAF16D0000E19
:10067C009B6F010E9A6FACC004F0ADC005F0AEC01C
:10068C0006F0AFC007F049EC19F004C0ACF005C09F
:10069C00ADF006C0AEF007C0AFF0000E0001B36FB6
:1006AC00000EB26FF6C09FF0F7C0A0F09A519B11EC
:1006BC00D8A402D078A413D09A519B11D8A404D0FA
:1006CC00000E856F2B0E03D0000E856F2D0E846FE0
:1006DC0084C000F1B24BB32B9F07D8A0A007ACC0CD
:1006EC0004F0ADC005F0AEC006F0AFC007F091EC61
:1006FC0014F004040510D8A44CD0BF0E5F6EFF0E8E
:10070C00606E5E50616E626A5F506126605062225C
:10071C00625006E11A0E615CD8B002D0010E01D015
:10072C00000E0001866F876B86518711D8B40DD0EF
:10073C00000EB225046E010EB321056E440E066E3A
:10074C00060E076E54EC18F00CD0000EB225046E99
:10075C00010EB321056E4C0E066E060E076E54ECA0
:10076C0018F00001FD0E9F27FF0EA02358C014F0B7
:10077C0059C015F0000E166E010E176E9FC018F0C2
:10078C00A0C019F061EC16F014C058F015C059F067
:10079C001200ACC004F0ADC005F0AEC006F0AFC0A6
:1007AC0007F091EC14F004500510D8A435D0BF0E0E
:1007BC005F6EFF0E606E5E50616E626A5F50612606
:1007CC0060506222625006E11A0E615CD8B002D011
:1007DC00010E01D0000E0001886F896B88518911C0
:1007EC00D8B40DD0000EB225046E010EB321056EE7
:1007FC00480E066E060E076E54EC18F0B2D7000EBB
:10080C00B225046E010EB321056E500E066E060E57
:10081C00076E54EC18F0A5D7000E0001B46F000E53
:10082C00B56F800EB66F3F0EB76F000EB16F000E36
:10083C00B06FACC004F0ADC005F0AEC006F0AFC0F8
:10084C0007F0000E086E000E096E000E0A6E000E08
:10085C000B6EACEC16F0D8A01ED076D0B4C012F053
:10086C00B5C013F0B6C014F0B7C015F0000E166E7C
:10087C00000E176E200E186E410E196EFDEC0AF06C
:10088C0012C0B4F013C0B5F014C0B6F015C0B7F078
:10089C000001B04BB12BACC02BF0ADC02CF0AEC0F6
:1008AC002DF0AFC02EF0000E166E000E176E200E3F
:1008BC00186E410E196EB4C012F0B5C013F0B6C06C
:1008CC0014F0B7C015F0FDEC0AF012C02FF013C0F5
:1008DC0030F014C031F015C032F0C2EC13F0D8A0D7
:1008EC001FD0BCD7B4C02BF0B5C02CF0B6C02DF0C7
:1008FC00B7C02EF0000E2F6E000E306E200E316E33
:10090C00410E326E2CEC0EF02BC0B4F02CC0B5F0B6
:10091C002DC0B6F02EC0B7F00001B007D8A0B107BB
:10092C00ACC02BF0ADC02CF0AEC02DF0AFC02EF093
:10093C00B4C02FF0B5C030F0B6C031F0B7C032F053
:10094C00C2EC13F0D8A0CED75EC00AF00B6A7DECD7
:10095C0018F00A500001A16FA1C09EF0670EA119FA
:10096C00D8A419D076507710D8A404D0000E776E86
:10097C00010E766E77BE05D0775008E17604D8B0BC
:10098C0005D0000E9D6F060E9C6F08D076C09CF0B3
:10099C0077C09DF003D077AEF9D7F3D7670EA119C6
:1009AC00D8A422D0B1AF06D0FC0EB05DFF0EB15969
:1009BC00D8A018D0FF0E5F6EFF0E606E9CC061F069
:1009CC009DC062F05F50612660506222B051615C44
:1009DC006250800A636EB151800A6358D8A002D06D
:1009EC00660E01D0650E9E6F9CC094F09DC095F074
:1009FC00670EA119D8A405D0660E9E19D8B4B1AF54
:100A0C0002D0944B952B660E9E19D8A416D0B1AF7C
:100A1C000CD0000EB46F000EB56F800EB66F3F0E8B
:100A2C00B76F000EB16F000EB06F670EA119D8B47E
:100A3C0004D0B0519427B1519523000EAB6F000E2A
:100A4C00AA6FACC0A2F0ADC0A3F0AEC0A4F0AFC012
:100A5C00A5F0B4C080F0B5C081F0B6C082F0B7C0CC
:100A6C0083F07BD0A2C02BF0A3C02CF0A4C02DF03F
:100A7C00A5C02EF0B4C02FF0B5C030F0B6C031F028
:100A8C00B7C032F02CEC0EF02BC044F02CC045F06B
:100A9C002DC046F02EC047F05DEC10F044C0A6F01F
:100AAC0045C0A7F046C0A8F047C0A9F0A6C004F006
:100ABC00A7C005F0A8C006F0A9C007F05DEC15F0C2
:100ACC0004C098F005C099F0A2C02BF0A3C02CF084
:100ADC00A4C02DF0A5C02EF0B4C016F0B5C017F010
:100AEC00B6C018F0B7C019F0A6C012F0A7C013F02A
:100AFC00A8C014F0A9C015F0FDEC0AF012C02FF03C
:100B0C0013C030F014C031F015C032F0A3EC18F063
:100B1C002BC0A2F02CC0A3F02DC0A4F02EC0A5F0C9
:100B2C00B4C02BF0B5C02CF0B6C02DF0B7C02EF071
:100B3C00000E2F6E000E306E200E316E410E326E96
:100B4C002CEC0EF02BC0B4F02CC0B5F02DC0B6F0D0
:100B5C002EC0B7F00001AA4BAB2B9451AA5DAB5140
:100B6C00800A5F6E9551800A5F58D8A07BD7B4C0BD
:100B7C0012F0B5C013F0B6C014F0B7C015F0000EEB
:100B8C00166E000E176EA00E186E400E196EFDEC50
:100B9C000AF012C0A6F013C0A7F014C0A8F015C03C
:100BAC00A9F0A2C02BF0A3C02CF0A4C02DF0A5C0BE
:100BBC002EF0A6C02FF0A7C030F0A8C031F0A9C00D
:100BCC0032F0C2EC13F0D8B003D0000E000118D0F4
:100BDC00A2C004F0A3C005F0A4C006F0A5C007F0A5
:100BEC00A6C008F0A7C009F0A8C00AF0A9C00BF075
:100BFC00ACEC16F0D8A00BD0000198B108D0000EC8
:100C0C00A66F000EA76F000EA86F000EA96FACC0E8
:100C1C0004F0ADC005F0AEC006F0AFC007F0A6C042
:100C2C0008F0A7C009F0A8C00AF0A9C00BF0A6EC08
:100C3C000CF004C0A2F005C0A3F006C0A4F007C0DD
:100C4C00A5F080C0B4F081C0B5F082C0B6F083C00E
:100C5C00B7F0650E00019E19D8B405D0B0C096F05F
:100C6C00B1C097F004D0000E976F000E966F000E77
:100C7C00936F000E926F000E916F000E906F000E2E
:100C8C00AB6F000EAA6FC7D0A2C02BF0A3C02CF084
:100C9C00A4C02DF0A5C02EF0B4C02FF0B5C030F01C
:100CAC00B6C031F0B7C032F02CEC0EF02BC044F0D3
:100CBC002CC045F02DC046F02EC047F05DEC10F076
:100CCC0044C0A6F045C0A7F046C0A8F047C0A9F0A4
:100CDC00A6C004F0A7C005F0A8C006F0A9C007F094
:100CEC005DEC15F004C098F005C099F078B80DD003
:100CFC00000198519911D8A408D0670EA119D8B445
:100D0C0097AF03D0904B912B3AD000019251931195
:100D1C00D8B497AF22D0000EB225D96E010EB321F4
:100D2C00DA6E2E0EDF6EB24BB32B9F07D8A0A00746
:100D3C00000E936F010E926F10D0000EB225D96E7B
:100D4C00010EB321DA6E300EDF6EB24BB32B9F0760
:100D5C00D8A0A0079007D8A0910790519111D8A4C2
:100D6C00ECD7000EB225D96E010EB321DA6E985174
:100D7C00300FDF6EB24BB32B9F07D8A0A007A2C0D9
:100D8C002BF0A3C02CF0A4C02DF0A5C02EF0B4C045
:100D9C0016F0B5C017F0B6C018F0B7C019F0A6C061
:100DAC0012F0A7C013F0A8C014F0A9C015F0FDEC08
:100DBC000AF012C02FF013C030F014C031F015C07F
:100DCC0032F0A3EC18F02BC0A2F02CC0A3F02DC075
:100DDC00A4F02EC0A5F0B4C02BF0B5C02CF0B6C05A
:100DEC002DF0B7C02EF0000E2F6E000E306E200EC0
:100DFC00316E410E326E2CEC0EF02BC0B4F02CC0C8
:100E0C00B5F02DC0B6F02EC0B7F000019607D8A0F3
:100E1C009707AA4BAB2B9451AA5DAB51800A5F6E1E
:100E2C009551800A5F58D8B008D0B3BF2DD7B351B5
:100E3C0004E14B0EB25DD8A027D792519311D8B4D0
:100E4C0078A80AD0000EB225D96E010EB321DA6E45
:100E5C002E0EDF6EB24BB32B000EB225D96E010EE7
:100E6C00B321DA6E000EDF6E650E9E19D8A47ED407
:100E7C00000EAB6F4F0EAA6F000EAA25D96E010E95
:100E8C00AB21DA6E000EDF6E000E9B6F000E9A6FB8
:100E9C00B1AF08D0000E9B6F010E9A6FB06DB11FF1
:100EAC00D8B0B12B000E9D6F020E9C6F2BD0AA07F1
:100EBC00D8A0AB07000EAA25D96E010EAB21DA6EB5
:100ECC00B0C004F0B1C005F0000E076E0A0E066E3D
:100EDC0071EC17F00450300FDF6EB0C004F0B1C0ED
:100EEC0005F0000E076E0A0E066EF1EC16F004C04B
:100EFC00B0F005C0B1F000019C07D8A09D079F077A
:100F0C00D8A0A007B051B111D8A4D1D79DBF05D09E
:100F1C009D51CDE19C05D8B0CAD7AA07D8A0AB0784
:100F2C009A519B11D8A404D0000E8B6F2B0E03D0BA
:100F3C00000E8B6F2D0E8A6F000EAA25D96E010E36
:100F4C00AB21DA6E8AC0DFFF9F07D8A0A007AA07E3
:100F5C00D8A0AB07BF0E5F6EFF0E606E5E50616E69
:100F6C00626A5F50612660506222625006E11A0E7E
:100F7C00615CD8B002D0010E01D0000E8E6F8F6B69
:100F8C008E518F11D8A404D0000E8D6F650E03D036
:100F9C00000E8D6F450E8C6F000EAA25D96E010EBA
:100FAC00AB21DA6E8CC0DFFF9F07D8A0A007000E24
:100FBC00B225046E010EB321056E000EAA25066E35
:100FCC00010EAB21076E54EC18F0BCEF03F066C0B9
:100FDC00D9FF67C0DAFFDECFF6FFDDCFF7FF0800E1
:100FEC00F550250AD8A4E9D266C0D9FF67C0DAFF4C
:100FFC00DE2A000EDD22000E0001F76F000EF66FE8
:10100C00F6C078F0F7C079F076687768000EB96FA3
:10101C00000E14D0788066C0D9FF67C0DAFFDE2AD4
:10102C00000EDD222ED07882F6D77884F4D778861D
:10103C00F2D77888F0D7000EB96F010EB86F21D0B7
:10104C0066C0D9FF67C0DAFFDECFF6FFDDCFF7FF52
:10105C000800F5506A6E6B6A6B50000AD8A4EBD787
:10106C006A50200AD8B4E3D7030AD8B4E2D7080AE6
:10107C00D8B4DBD7060AD8B4CDD71D0AD8B4D3D789
:10108C00DAD7B851B911D8B4DBD778B0789266C03A
:10109C00D9FF67C0DAFFDECFF6FFDDCFF7FF080020
:1010AC00F5502A0AD8A423D066C0D9FF67C0DAFF4E
:1010BC00DE2A000EDD2268C0D9FF69C0DAFFDFCF5F
:1010CC006AF0020EDE26DFCF6BF0000EDD226AC066
:1010DC00D9FF6BC0DAFFDECFF6F0DDCFF7F0F7AF5C
:1010EC0040D07880F66DF71FD8B0F72B3AD066C099
:1010FC00D9FF67C0DAFFDECF0BF0DDCF0CF00FECC1
:10110C0012F00BC0F6F00CC0F7F007D066C0D9FF98
:10111C0067C0DAFFDE2A000EDD22D00E6A6EFF0EEB
:10112C006B6E66C0D9FF67C0DAFFDECFF6FFDDCF8E
:10113C00F7FF0800F5506C6E6D6A6A506C266B50A8
:10114C006D226D5006E10A0E6C5CD8B002D0010E17
:10115C0001D0000E0001BA6FBB6BBA51BB11D8A401
:10116C00D5D766C0D9FF67C0DAFFDECFF6FFDDCF7B
:10117C00F7FF0800F5502E0AD8A46ED0000E776E3B
:10118C00000E766E66C0D9FF67C0DAFFDE2A000E4D
:10119C00DD2266C0D9FF67C0DAFFDECFF6FFDDCFF8
:1011AC00F7FF0800F5502A0AD8A41CD066C0D9FF56
:1011BC0067C0DAFFDE2A000EDD2268C0D9FF69C0E5
:1011CC00DAFFDFCF6AF0020EDE26DFCF6BF0000E07
:1011DC00DD226AC0D9FF6BC0DAFFDECF76F0DDCF3F
:1011EC0077F03AD066C0D9FF67C0DAFFDECF0BF0DC
:1011FC00DDCF0CF00FEC12F00BC076F00CC077F0DA
:10120C0007D066C0D9FF67C0DAFFDE2A000EDD22E8
:10121C00D00E6A6EFF0E6B6E66C0D9FF67C0DAFF28
:10122C00DECFF6FFDDCFF7FF0800F5506C6E6D6A70
:10123C006A506C266B506D226D5006E10A0E6C5C88
:10124C00D8B002D0010E01D0000E0001BC6FBD6BF6
:10125C00BC51BD11D8A4D5D766C0D9FF67C0DAFF81
:10126C00DECFF6FFDDCFF7FF0800F5500A6E0B6AF4
:10127C007DEC18F00A500001CC6FCC51D8B435D0AD
:10128C0066C0D9FF67C0DAFFDECF6AF0DDCF6BF046
:10129C00010E6A26000E6B226AC0F6FF6BC0F7FFC8
:1012AC000800F5500A6E0B6A7DEC18F00A5000012C
:1012BC00CD6FCD51D8B419D066C0D9FF67C0DAFF55
:1012CC00DECF6AF0DDCF6BF0020E6A26000E6B22C9
:1012DC006AC0F6FF6BC0F7FF0800F5500A6E0B6A88
:1012EC007DEC18F00A500001CE6F660ECC19D8A414
:1012FC003FD066C0D9FF67C0DAFFDECFF6FFDDCF87
:10130C00F7FF0800F5CFCFF066C0D9FF67C0DAFF52
:10131C00DE2A000EDD2268C0D9FF69C0DAFFDFCFFC
:10132C006AF0040EDE26DFCF6BF0000EDD226AC001
:10133C00D9FF6BC0DAFFDECFC8F0DECFC9F0DECF4D
:10134C00CAF0DECFCBF064C058F065C059F0C8C00D
:10135C005AF0C9C05BF0CAC05CF0CBC05DF0CFC026
:10136C005EF02EEC03F058C064F059C065F012002A
:10137C00CC0E046E000E056E540E066E060E076E35
:10138C00000E096E020E086E4FEC13F0045005109F
:10139C00D8A456D066C0D9FF67C0DAFFDECF6AF09A
:1013AC00DDCF6BF0010E6A26000E6B226AC0F6FFD1
:1013BC006BC0F7FF0800F5CFCFF0BF0E6A6EFF0EC3
:1013CC006B6E66C0D9FF67C0DAFFDECFF6FFDDCFEC
:1013DC00F7FF0800F5506C6E6D6A6A506C266B5006
:1013EC006D226D5006E11A0E6C5CD8B002D0010E65
:1013FC0001D0000E0001BE6FBF6BBE51BF1168C0A3
:10140C00D9FF69C0DAFFDFCF6AF0040EDE26DFCF2A
:10141C006BF0000EDD226AC0D9FF6BC0DAFFDECFA5
:10142C00C8F0DECFC9F0DECFCAF0DECFCBF0020EB3
:10143C0066C0D9FF67C0DAFFDE26000EDD2283D737
:10144C0066C0D9FF67C0DAFFDECFF6FFDDCFF7FF4E
:10145C000800F550750AD8A441D066C0D9FF67C002
:10146C00DAFFDE2A000EDD2268C0D9FF69C0DAFF80
:10147C00DFCF6AF0020EDE26DFCF6BF0000EDD222E
:10148C006AC0D9FF6BC0DAFFDECF6CF0DDCF6DF038
:10149C006CC0C0F06DC0C1F00001C26BC36BC46BFB
:1014AC00C56BC66BC76B64C01FF065C020F0C0C0B5
:1014BC0021F0C1C022F0C2C023F0C3C024F0C4C0CC
:1014CC0025F0C5C026F0C6C027F0C7C028F038EC00
:1014DC0011F01FC064F020C065F0120066C0D9FF87
:1014EC0067C0DAFFDECF04F0DDCF05F0570E066ED5
:1014FC00060E076E000E096E020E086E4FEC13F00E
:10150C0004500510D8A42AD0020E66C0D9FF67C0BB
:10151C00DAFFDE26000EDD2268C0D9FF69C0DAFFD3
:10152C00DFCF6AF0040EDE26DFCF6BF0000EDD227B
:10153C006AC0D9FF6BC0DAFFDECF6CF0DECF6DF086
:10154C00DECF6EF0DECF6FF06C500001C06F6D50CF
:10155C00C16F6E50C26F6F50C36FA1D766C0D9FFF9
:10156C0067C0DAFFDECFF6FFDDCFF7FF0800F550DE
:10157C00250AD8A416D066C0D9FF67C0DAFFDE2AC8
:10158C00000EDD22000E056E250E046E64C006F002
:10159C0065C007F011EC16F0000E656E010E646E5E
:1015AC00120066C0D9FF67C0DAFFDE2A000EDD220A
:1015BC00000E656E000E646E120066C0D9FF67C027
:1015CC00DAFFDECFF6FFDDCFF7FF0800F550046E33
:1015DC00056A64C006F065C007F011EC16F066C031
:1015EC00D9FF67C0DAFFDE2A000EDD22D5D71550F1
:1015FC00800B1E6E15501524246E14BE24802450AE
:10160C00D8B40DD02428D8A408D0000E126E000E29
:10161C00136E000E146E000E156E148E08D0000E94
:10162C00126E000E136E000E146E000E156E195015
:10163C00800B1E1A195019241F6E18BE1F801F50C4
:10164C00D8B40DD01F28D8A408D0000E166E000EEA
:10165C00176E000E186E000E196E188E08D0000E44
:10166C00166E000E176E000E186E000E196E1F50BF
:10167C00D8B403D02450D8A409D0000E126E000E9A
:10168C00136E000E146E000E156E1200185012021E
:10169C00F3CF29F0F4CF2AF02950206E216A226A68
:1016AC00236A2A50256E266A276A286A1750130265
:1016BC00F3CF29F0F4CF2AF029502026000E212256
:1016CC00222223222A502526000E262227222822D7
:1016DC0016501402F3CF29F0F4CF2AF0295020260B
:1016EC00000E2122222223222A502526000E2622F9
:1016FC002722282222C023F021C022F020C021F072
:10170C00206A16501302F3CF29F0F4CF2AF0295097
:10171C0020262A502122000E2222000E23221750AE
:10172C001202F3CF29F0F4CF2AF0295020262A50A8
:10173C002122000E2222000E232222C023F021C0DF
:10174C0022F020C021F0206A16501202F3CF29F0AB
:10175C00F4CF2AF0295020262A502122000E2222D2
:10176C00000E232218501302F3CF29F0F4CF2AF0E5
:10177C00295025262A502622000E2722000E282228
:10178C0017501402F3CF29F0F4CF2AF02950252654
:10179C002A502622000E2722000E2822185014024E
:1017AC00F3CF29F0F4CF2AF029501A6E2A501B6E71
:1017BC001C6A1D6A1CC01DF01BC01CF01AC01BF05B
:1017CC001A6A1A5025261B5026221C5027221D50FF
:1017DC00282220C01AF021C01BF022C01CF023C00C
:1017EC001DF0190E05D0D8901D321C321B321A3246
:1017FC00E82EF9D71A5025261B5026221C502722DA
:10180C001D50282222C023F021C022F020C021F03C
:10181C00206A1F5024C01AF01B6A1A26000E1B22C5
:10182C00820E1A24296EFF0E1B202A6E0FD0D89020
:10183C00253626362736283623BE2580D8902036E6
:10184C002136223623362906D8A02A0627AEEFD712
:10185C00000E1F6E23AE17D0FF0E20141A6EFF0E53
:10186C0021141B6EFF0E22141C6E7F0E23141D6E92
:10187C001A501B101C101D10D8B403D0010E1F6E73
:10188C0002D025B0FBD71F50D8B41FD0010E25268F
:10189C00000E26222722282228A017D025C01AF0B5
:1018AC0026C01BF027C01CF028C01DF01D341D32B3
:1018BC001C321B321A321AC025F01BC026F01CC079
:1018CC0027F01DC028F0294A2A2A2ABE0DD02A50FA
:1018DC0003E12928D8A008D0000E256E000E266E34
:1018EC00800E276E7F0E20D02ABE05D02A500EE126
:1018FC002904D8B00BD0000E256E000E266E000EFB
:10190C00276E000E286E000E1E6E0FD029C024F01C
:10191C00FF0E2516FF0E26167F0E2716000E281614
:10192C0024B0278ED8902430286E1E50281225C043
:10193C0012F026C013F027C014F028C015F01200C6
:10194C000750800B106E07500724126E06BE1280D3
:10195C001250D8B40DD01228D8A408D0000E046EA2
:10196C00000E056E000E066E000E076E068E06D07B
:10197C00000E046E000E056E000E066E000E076E55
:10198C000B50800B116E10501118D8A4108C0B50EA
:10199C000B24116E0ABE11801150D8B40DD0112831
:1019AC00D8A408D0000E086E000E096E000E0A6E48
:1019BC00000E0B6E0A8E06D0000E086E000E096E1D
:1019CC00000E0A6E000E0B6E1250115CD8B022D0B5
:1019DC0010AC02D0800E101A12C013F011C012F00D
:1019EC0013C011F004C013F008C004F013C008F0C9
:1019FC0005C013F009C005F013C009F006C013F0C0
:101A0C000AC006F013C00AF007C013F00BC007F0B1
:101A1C0013C00BF0000E136E125011C00CF00D6AB7
:101A2C000C5E000E0D5A0DBE2CD00D5004E11A0E9A
:101A3C000C5CD8A026D00450051006100710D8B4A2
:101A4C0002D0010E01D0000E136E000E046E000EBB
:101A5C00056E000E066E000E076E11C012F015D04A
:101A6C0013A005D0D89013300109136E02D0D89072
:101A7C00133204B0138E07340732063205320432A7
:101A8C00122A1150125CD8A0EBD710BC28D01250DF
:101A9C00D8A409D0000E046E000E056E000E066E62
:101AAC00000E076E120008500426095005220A5039
:101ABC0006220B50072207A071D013A005D0D89096
:101ACC0013300109136E02D0D890133204B0138E68
:101ADC0007340732063205320432122A5FD008501E
:101AEC00045C095005580A5006580750800A0C6EC1
:101AFC000B50800A0C58D8B025D00450085C0C6EE2
:101B0C00055009580D6E06500A580E6E07500B58AA
:101B1C000F6EFF0E0C24046EFF0E0D20056EFF0ED3
:101B2C000E20066EFF0E0F20076E800E101A136C1F
:101B3C001350D8A40FD0010E0426000E0522062245
:101B4C00072208D00850045E0950055A0A50065A5C
:101B5C000B50075A0450051006100710D8A41CD0BF
:101B6C001350D8A419D0000E046E000E056E000E92
:101B7C00066E000E076E1200D89004360536063637
:101B8C00073613BE048013A002D0D88001D0D890A1
:101B9C0013361250D8A4120606AEEED7000E116EF4
:101BAC0013AE0BD013C00CF07F0E0C16D8B403D0B0
:101BBC00010E116E02D004B0FBD71150D8B420D056
:101BCC00010E0426000E05220622072207A018D0BB
:101BDC0004C00CF005C00DF006C00EF007C00FF0ED
:101BEC000F340F320E320D320C320CC004F00DC01B
:101BFC0005F00EC006F00FC007F01228D8A4122A68
:101C0C001228D8B403D01250D8A40DD0000E046EF4
:101C1C00000E056E000E066E000E076E1250D8A454
:101C2C0002D0000E106E12A002D0068E01D0069EBD
:101C3C00D8901230076E10BE078E04C004F005C099
:101C4C0005F006C006F007C007F012002E50800BFE
:101C5C003B6E2E502E24426E2DBE42804250D8B484
:101C6C000DD04228D8A408D0000E2B6E000E2C6E7E
:101C7C00000E2D6E000E2E6E2D8E06D0000E2B6ECD
:101C8C00000E2C6E000E2D6E000E2E6E3250800B40
:101C9C003B1A32503224436E31BE43804350D8B489
:101CAC000DD04328D8A408D0000E2F6E000E306E35
:101CBC00000E316E000E326E318E06D0000E2F6E7D
:101CCC00000E306E000E316E000E326E2F50301042
:101CDC0031103210D8A417D0000E2B6E000E2C6EC3
:101CEC00000E2D6E000E2E6E800E2D127F0E2E12FB
:101CFC003B502E122BC02BF02CC02CF02DC02DF0F5
:101D0C002EC02EF012004250D8A409D0000E2B6E1B
:101D1C00000E2C6E000E2D6E000E2E6E1200435017
:101D2C0042C033F0346A335E000E345A7F0E3324D3
:101D3C003C6E000E34203D6E2BC037F02CC038F0BA
:101D4C002DC039F02EC03AF0000E2B6E000E2C6E0A
:101D5C00000E2D6E000E2E6E000E3E6E000E3F6EAF
:101D6C00000E406E000E416E000E436E28D04350A4
:101D7C00D8B411D0D8903736383639363A36D89060
:101D8C002B362C362D362E3641BE2B80D8903E3637
:101D9C003F36403641362F50375C30503858315032
:101DAC00395832503A58D8A009D0418C2F50375E50
:101DBC003050385A3150395A32503A5A432A190E47
:101DCC004364D5D73750381039103A10D8B411D0E5
:101DDC003E800FD0D8902B362C362D362E3641BE69
:101DEC002B80D8903E363F36403641363C06D8A044
:101DFC003D062DAEEFD7000E436E41AE17D0FF0E51
:101E0C003E14336EFF0E3F14346EFF0E4014356ECD
:101E1C007F0E4114366E3350341035103610D8B452
:101E2C0003D0010E436E02D02BB0FBD74350D8B475
:101E3C001FD0010E2B26000E2C222D222E222EA07E
:101E4C0017D02BC033F02CC034F02DC035F02EC081
:101E5C0036F03634363235323432333233C02BF03E
:101E6C0034C02CF035C02DF036C02EF03C4A3D2A43
:101E7C003DBE10D03D5003E13C28D8A00BD0000E45
:101E8C003D6E3C68000E2B6E000E2C6E000E2D6EFF
:101E9C00000E2E6E3DBE05D03D5011E13C04D8B075
:101EAC000ED0000E3D6E000E3C6E000E2B6E000E22
:101EBC002C6E000E2D6E000E2E6E000E3B6E3CC076
:101ECC0042F042A002D02D8E01D02D9ED8904230EF
:101EDC002E6E0ED7000E936E000E816E050EC26E26
:101EEC000D0EC16E870EC06E9D8AF28EF28C88EC40
:101EFC0019F0010E056E060E066E2BEC18F00B0E8B
:101F0C000001DF6F260EDE6F5D0EE82EFED7DE2F92
:101F1C00FCD7DF2FFAD700D0C294420EE82EFED7A2
:101F2C0000D0C282C2B2FED7C4CFF8F00001F96B68
:101F3C00F851DF6FDE6BC350DE25F86F000EDF212A
:101F4C00F96F000E166E400E176E9C0E186E450E35
:101F5C00196EF8C004F0F9C005F0000E05BEFF0EB6
:101F6C00066E076E010EAFEC12F004C012F005C045
:101F7C0013F006C014F007C015F0FDEC0AF012C007
:101F8C002BF013C02CF014C02DF015C02EF0000E49
:101F9C002F6EC00E306E7F0E316E440E326E2CECF6
:101FAC000EF02BC0ECF02CC0EDF02DC0EEF02EC0DE
:101FBC00EFF0ECC02BF0EDC02CF0EEC02DF0EFC02C
:101FCC002EF0000E2F6E000E306E200E316E410E74
:101FDC00326E2CEC0EF02BC0ECF02CC0EDF02DC0C2
:101FEC00EEF02EC0EFF0C284420EE82EFED700D0E9
:101FFC00C282C2B2FED7C4CFF8F00001F96BF8511F
:10200C00DF6FDE6BC350DE25F86F000EDF21F96F3A
:10201C00F8C004F0F9C005F0000E05BEFF0E066E08
:10202C00076E880E086E130E096E000E0A6E000EF7
:10203C000B6E00EC18F004C010F005C011F006C0D7
:10204C0012F007C013F0FF0E146E030E156E000E87
:10205C00166E000E176EF7EC14F010C0F0F011C0F5
:10206C00F1F012C0F2F013C0F3F0500E0001D26F79
:10207C00010ED36F230ED46F060ED56FECC0D6F0C5
:10208C00EDC0D7F0EEC0D8F0EFC0D9F0F0C0DAF068
:10209C00F1C0DBF0F2C0DCF0F3C0DDF0A9EC17F01E
:1020AC00500E056E010E066E2BEC18F028D7E0C012
:1020BC0054F0E1C055F0E2C056F0E3C057F044C014
:1020CC0054F045C055F046C056F047C057F0810E4D
:1020DC00486EFF0E496E54C04AF055C04BF056C0C6
:1020EC004CF057C04DF0180E05D0D8904D324C32F4
:1020FC004B324A32E82EF9D74A504824526E000E21
:10210C004920536E53BE0FD0535004E1170E525C4E
:10211C00D8A009D044C044F045C045F046C046F0B4
:10212C0047C047F0120053BE5ED052C048F0FF0EBD
:10213C00496EFF0E4A6E7F0E4B6E000E4C6E48665B
:10214C0001D007D04C344C324B324A324932482EF3
:10215C00F6D749C04EF04AC04FF04BC050F04CC0BF
:10216C0051F04E505414486E4F505514496E505007
:10217C0056144A6E515057144B6E485049104A1021
:10218C004B10D8B4C7D754C048F055C049F056C00E
:10219C004AF057C04BF0200E05D0D8904B324A3243
:1021AC0049324832E82EF9D7485049104A104B10A2
:1021BC00D8B408D04E5054264F5055225050562269
:1021CC00515057224E1C486E4F1C496E501C4A6E83
:1021DC00511C4B6E48505416495055164A505616C1
:1021EC004B50571636D054C048F055C049F056C025
:1021FC004AF057C04BF0200E05D0D8904B324A32E3
:10220C0049324832E82EF9D7485049104A104B1041
:10221C00D8A408D0000E546E000E556E000E566EEB
:10222C00000E16D0D8905434486E5534496E56343E
:10223C004A6E57344B6E485049104A104B10D8B464
:10224C0008D0000E546E000E556E800E566EBF0EEA
:10225C00576E54C044F055C045F056C046F057C0B8
:10226C0047F0120077AE789277BE05D0775008E130
:10227C007604D8B005D0000E326E010E316E04D04B
:10228C0076C031F077C032F0F6C033F0F7C034F0DE
:10229C0021C035F022C036F023C037F024C038F00E
:1022AC0025C039F026C03AF027C03BF028C03CF0DE
:1022BC00000E3E6E4F0E3D6E000E01014F6F76D03C
:1022CC003D06D8A03E06000E3D24D96E010E3E20E0
:1022DC00DA6E35C004F036C005F037C006F038C0F1
:1022EC0007F039C008F03AC009F03BC00AF03CC016
:1022FC000BF00A0E0C6E000E0D6E000E0E6E000E24
:10230C000F6E000E106E000E116E000E126E000E8F
:10231C00136EBAEC15F004C029F005C02AF006C003
:10232C002BF007C02CF008C02DF009C02EF00AC00D
:10233C002FF00BC030F02950300FDF6E3106D8A0D3
:10234C0032063306D8A0340635C004F036C005F08A
:10235C0037C006F038C007F039C008F03AC009F0B1
:10236C003BC00AF03CC00BF00A0E0C6E000E0D6E5A
:10237C00000E0E6E000E0F6E000E106E000E116E23
:10238C00000E126E000E136E2AEC14F004C035F021
:10239C0005C036F006C037F007C038F008C039F079
:1023AC0009C03AF00AC03BF00BC03CF03D503E1067
:1023BC00D8B41AD0355036103710381039103A10AE
:1023CC003B103C10D8A47CD732BE05D0325002E171
:1023DC003104D8B075D734BE07D0345003E1330480
:1023EC00D8A002D078B26CD71FC014F020C015F062
:1023FC00000E3D24166E010E3E20176E33C018F0F1
:10240C0034C019F061EC16F014C01FF015C020F0A8
:10241C001200000E196E000E186E000E126E000ED9
:10242C00116E02D00B4A0C2A010E176E0BC0F6FF70
:10243C000CC0F7FF0800F550200AD8B418D0F70EDE
:10244C000D6EFF0E0E6E0BC0F6FF0CC0F7FF0800F2
:10245C00F5500F6E106A0D500F260E5010221050B2
:10246C0004E1050E0F5CD8A002D0000E176E17C049
:10247C0013F0146A13501410D8B408D0D3D7000E2C
:10248C00126E010E116E0B4A0C2A2ED00BC0F6FFE9
:10249C000CC0F7FF0800F5500D6E0E6A0E50000AC6
:1024AC00D8A422D00D502B0AD8B4EDD7060AD8B434
:1024BC00E6D71AD018C004F019C005F0000E076E4C
:1024CC000A0E066E75EC19F00BC0F6FF0CC0F7FF88
:1024DC000800F550045E000E055A300E0424186EE8
:1024EC00000E0520196ECFD7D00E0D6EFF0E0E6E9E
:1024FC000BC0F6FF0CC0F7FF0800F5500F6E106A0A
:10250C000D500F260E501022105006E10A0E0F5CD3
:10251C00D8B002D0010E01D0000E156E166A1550FF
:10252C001610D8A4C7D711501210D8A40DD018C0AB
:10253C000DF019C00EF00D1E0E1E0D4A0E2A0DC008
:10254C000BF00EC00CF0120018C00BF019C00CF000
:10255C0012000C6E0C50D8A407AE1AD004C008F0B0
:10256C0005C009F006C00AF007C00BF0081E091ED2
:10257C000A1E0B1E082A000E09220A220B2208C072
:10258C000EF009C00FF00AC010F00BC011F008D00B
:10259C0004C00EF005C00FF006C010F007C011F01B
:1025AC000450051006100710D8A409D0000E046EB4
:1025BC00000E056E000E066E000E076E1200960ED3
:1025CC000D6E06D00D2AD890113210320F320E3209
:1025DC00000E0E14086E000E0F14096E000E10146F
:1025EC000A6EFE0E11140B6E085009100A100B1017
:1025FC00D8B40DD0E7D70D2A010E0E26000E0F22EF
:10260C0010221122D890113210320F320E32000EDD
:10261C000E14086E000E0F14096E000E10140A6EC4
:10262C00FF0E11140B6E085009100A100B10D8B4C1
:10263C0007D0E1D70D06D8900E360F36103611366E
:10264C0010BE03D0020E0D60F5D70DA0109ED890D1
:10265C000D320DC008F0096A0A6A0B6A08C00BF04B
:10266C000A6A096A086A08500E1209500F120A50B9
:10267C0010120B5011120C50D8A407AE01D0118EB1
:10268C000EC004F00FC005F010C006F011C007F02A
:10269C00120004C00BF005C00CF006C00DF007C012
:1026AC000EF00806D8A0090608280FE10928D8A4BE
:1026BC000CD0000E056E000E046E12000B4A0C2A94
:1026CC000D4A0E2A0806D8A009060BC0F6FF0CC04E
:1026DC00F7FFF86A050EF76403D00800F55005D033
:1026EC00F6CFE1FFF7CFE2FFE7500009D8B427D0CF
:1026FC000DC0F6FF0EC0F7FF0800F5500009D8B466
:10270C001ED008500910D8B41AD00DC0F6FF0EC058
:10271C00F7FF0800F5CF0AF00BC0F6FF0CC0F7FF6F
:10272C00F86A050EF76403D00800F55005D0F6CF13
:10273C00E1FFF7CFE2FFE7500A18D8B4BFD70BC0C0
:10274C00F6FF0CC0F7FFF86A050EF76403D008001B
:10275C00F55005D0F6CFE1FFF7CFE2FFE7500A6E58
:10276C000DC0F6FF0EC0F7FF0800F5500A5C046EB2
:10277C00056AD8A005061200000E2B14336E000E4D
:10278C002C14346E800E2D14356E7F0E2E14366E76
:10279C003350341035103610D8A408D0000E2B6EE0
:1027AC00000E2C6E000E2D6E000E2E6E000E2F14D1
:1027BC00336E000E3014346E800E3114356E7F0E75
:1027CC003214366E3350341035103610D8A408D06D
:1027DC00000E2F6E000E306E000E316E000E326E3B
:1027EC002EAE09D02B6C2C1ED8B02C2A2D1ED8B096
:1027FC002D2A800E2E5632AE09D02F6C301ED8B03A
:10280C00302A311ED8B0312A800E3256000E2B1AC7
:10281C00000E2C1A000E2D1A800E2E1A000E2F1AD6
:10282C00000E301A000E311A800E321A2F502B5C0B
:10283C0030502C5831502D5832502E58D8B002D020
:10284C00D8901200D880120020EE14F0070EDE6A29
:10285C00E806FDE20C500D100E100F1010101110A8
:10286C0012101310D8B446D0010E1C6E0AD0D8909A
:10287C000C360D360E360F36103611361236133620
:10288C001C2A13AEF4D7D8901436153616361736D4
:10289C00183619361A361B360C50045C0D50055878
:1028AC000E5006580F500758105008581150095820
:1028BC0012500A5813500B58D8A011D00C50045E6B
:1028CC000D50055A0E50065A0F50075A1050085A00
:1028DC001150095A12500A5A13500B5A1480D8909E
:1028EC0013321232113210320F320E320D320C32D0
:1028FC001C2EC9D714C004F015C005F016C006F084
:10290C0017C007F018C008F019C009F01AC00AF077
:10291C001BC00BF01200E4C00EF0E5C00FF0E6C0D7
:10292C0010F0E7C011F004C00EF005C00FF006C0A7
:10293C0010F007C011F00EC008F00FC009F010C065
:10294C000AF011C00BF0180E05D0D8900B320A32D9
:10295C0009320832E82EF9D708500C6E0D6A0C506B
:10296C000D10D8A419D0D8900E34086E0F34096EFF
:10297C0010340A6E11340B6E085009100A100B102B
:10298C00D8A405D0000E056E020E046E1200000EC7
:10299C00056E030E046E12000C280D10D8A41CD06A
:1029AC000EC008F00FC009F010C00AF011C00BF0F7
:1029BC00090ED890083609360A360B36E82EF9D7A8
:1029CC00085009100A100B10D8A402D0010E01D027
:1029DC00000E046E056A1200000E056E040E046EE5
:1029EC001200000E196E17AE0AD0171E161E151EF9
:1029FC00146C000E152216221722010E196E13AE3E
:102A0C000AD0131E121E111E106C000E112212225F
:102A1C001322010E191A000E1A6E000E1B6E000EF8
:102A2C001C6E000E1D6E1450151016101710D8B415
:102A3C002AD0010E186E06D0D890143615361636DC
:102A4C001736182A17AEF8D7D8901A361B361C36FC
:102A5C001D361450105C1550115816501258175042
:102A6C001358D8A009D01450105E1550115A165096
:102A7C00125A1750135A1A80D89017321632153230
:102A8C001432182EE1D71950D8B408D01D1E1C1EB4
:102A9C001B1E1A6C000E1B221C221D221AC010F0C9
:102AAC001BC011F01CC012F01DC013F01200063434
:102ABC0007340D6E0D50D8A409D0000E046E000E14
:102ACC00056E000E066E000E076E120004C008F0B4
:102ADC0005C009F006C00AF007C00BF0200E05D0A7
:102AEC00D8900B320A3209320832E82EF9D7085046
:102AFC000C6E068EFF0E0416FF0E0516FF0E061644
:102B0C00000E0716960E0D5E0DAE0DD00D50800A00
:102B1C00970FD8A0D2D7D89007320632053204329C
:102B2C000D3EF9D70DD01F0E0D6407D0C6D7D89027
:102B3C0004360536063607360D060D50D8A4F7D7E1
:102B4C000C50D8B408D0071E061E051E046C000ECF
:102B5C0005220622072204C004F005C005F006C0B9
:102B6C0006F007C007F012000C500D100E100F10DD
:102B7C001010111012101310D8B43CD0010E146E9A
:102B8C000AD0D8900C360D360E360F36103611365C
:102B9C0012361336142A13AEF4D70C50045C0D50B5
:102BAC0005580E5006580F50075810500858115021
:102BBC00095812500A5813500B58D8A010D00C506A
:102BCC00045E0D50055A0E50065A0F50075A1050FD
:102BDC00085A1150095A12500A5A13500B5AD890CD
:102BEC0013321232113210320F320E320D320C32CD
:102BFC00142ED3D704C004F005C005F006C006F0AF
:102C0C0007C007F008C008F009C009F00AC00AF0B4
:102C1C000BC00BF0120006500710D8B404D00650AD
:102C2C000710D8A404D004509BEC19F0120020EE2D
:102C3C0004F00650D9260750DA22DE50DE10D8B444
:102C4C0016D020EE04F00650D9260750DA2210EEEA
:102C5C0002F00650E1260750E222DE50E65CE65018
:102C6C00800A0C6EDE50800A0C58D8B0120020EE90
:102C7C0002F00650D9260750DA22DECF08F0DDCF5D
:102C8C0009F006C0D9FF07C0DAFFDECF0AF0DDCFAE
:102C9C000BF008500A24D96E09500B20DA6E04C0D0
:102CAC00DFFF20EE02F00650D9260750DA22DE2A8A
:102CBC00000EDD22120078A00AD016C00DF017C04D
:102CCC000EF014C00FF015C010F0E5EC18F019BEA2
:102CDC0005D018C01DF019C01EF004D0000E1E6ED9
:102CEC00000E1D6E000E1C6E000E1B6E0CD0000E26
:102CFC00056E200E046E14C006F015C007F011EC22
:102D0C0016F01B4A1C2A1D501B5C1C50800A1A6EA4
:102D1C001E50800A1A58D8A0EAD778B00AD016C02C
:102D2C000DF017C00EF014C00FF015C010F0E5EC4C
:102D3C0018F016C004F017C005F060EC19F01D5027
:102D4C000424146E1E500520156E1200000E04147F
:102D5C000C6E000E05140D6E800E06140E6E7F0E9A
:102D6C0007140F6E0C500D100E100F10D8A408D0B5
:102D7C00000E046E000E056E000E066E000E076E41
:102D8C00000E08140C6E000E09140D6E800E0A1441
:102D9C000E6E7F0E0B140F6E0C500D100E100F10CC
:102DAC00D8A408D0000E086E000E096E000E0A6E34
:102DBC00000E0B6E085004180AE10950051807E1C3
:102DCC000A50061804E10B500718D8B402D0D8905A
:102DDC001200D8801200000E096E07AE06D0066CE9
:102DEC00071ED8B0072A010E096E05AE06D0046C7A
:102DFC00051ED8B0052A010E091A000E0B6E000E26
:102E0C000A6E06500710D8B41CD0010E086E04D000
:102E1C00D89006360736082A07AEFAD7D8900A3665
:102E2C000B360650045C07500558D8A005D0065048
:102E3C00045E0750055A0A80D89007320632082ED5
:102E4C00EDD70950D8B404D00A6C0B1ED8B00B2A9D
:102E5C000AC004F00BC005F012000600D9CF02F036
:102E6C00DACF03F09EAA30D0E80E7A24D96EDA6A53
:102E7C00000EDA2297EC19F0DF6EE80E7A24D96E88
:102E8C00DA6A000EDA220D0EDE18D8A41CD04C0E15
:102E9C000001E819D8A408D0440EE919D8A404D02C
:102EAC00310EEA19D8B48180440EE819D8A408D0A0
:102EBC004C0EE919D8A404D0310EEA19D8B481907B
:102ECC00000E7A6E01D07A2A9E9A03C0DAFF02C0F5
:102EDC00D9FF7B921100000E096E05AE06D0046C72
:102EEC00051ED8B0052A010E096E07AE04D0066C7B
:102EFC00071ED8B0072A06500710D8B418D0010EF8
:102F0C00086E04D0D89006360736082A07AEFAD7D2
:102F1C000650045C07500558D8A004D00650045E37
:102F2C000750055AD89007320632082EF1D70950AF
:102F3C00D8B404D0046C051ED8B0052A04C004F023
:102F4C0005C005F01200D60E0101846F000E856FCE
:102F5C00D2C086F1D3C087F1000E896F000E886F46
:102F6C00000E8B6F000E8A6F860E706E010E716EE6
:102F7C00D4C072F0D5C073F0840E746E010E756EF1
:102F8C00D5EC17F0010188510001D225D96E010151
:102F9C0089510001D321DA6E000EDF6E120072C06F
:102FAC00D0F073C0D1F0000E0001F56F000EF46F7D
:102FBC0013D070C064F071C065F0D00E666E000E58
:102FCC00676E74C068F075C069F0EDEC07F0645082
:102FDC000001F4276550F523D0C0F6FFD1C0F7FFF0
:102FEC000800F5500009D8A4E4D7F4C070F0F5C07F
:102FFC0071F01200000E0C6E000E0D6E000E0E6EB7
:10300C00000E0F6E04A008D008500C2609500D229B
:10301C000A500E220B500F22D890083609360A3669
:10302C000B36D890073206320532043204500510A4
:10303C0006100710D8A4E6D70CC004F00DC005F09C
:10304C000EC006F00FC007F0120014D005C0F6FF3A
:10305C0006C0F7FFF86A050EF76403D00800F550B8
:10306C0005D0F6CFE1FFF7CFE2FFE75091EC19F076
:10307C00054A062A05C0F6FF06C0F7FFF86A050EDA
:10308C00F76403D00800F55005D0F6CFE1FFF7CF79
:10309C00E2FFE7500009D8B41200D8D706C00AF0F6
:1030AC0007C00BF004C00CF005C00DF00A50086E00
:1030BC000B50096E0A4A0B2A08C0F6FF09C0F7FF2D
:1030CC00F86A0CC0D9FF0DC0DAFF0C4A0D2A050EA8
:1030DC00F76403D00800F55005D0F6CFE1FFF7CF29
:1030EC00E2FFE750DF6EDF50D8B41200DFD7BF0E1F
:1030FC000C6EFF0E0D6E0AC00EF00BC00FF00C50D4
:10310C000E260D500F220F5006E11A0E0E5CD8B091
:10311C0002D0010E01D0000E106E116A1050111069
:10312C00D8B406D0200E0A100A6E0B500B6E12008B
:10313C000AC00AF00BC00BF01200000E2F1A000E82
:10314C00301A000E311A800E321A2BC004F02CC02B
:10315C0005F02DC006F02EC007F02FC008F030C0CF
:10316C0009F031C00AF032C00BF0A6EC0CF004C030
:10317C002BF005C02CF006C02DF007C02EF012006D
:10318C00010E0A6E200E04180510D8B414D0F70ED8
:10319C00066EFF0E076E04C008F005C009F006505D
:1031AC00082607500922095004E1050E085CD8A036
:1031BC0002D0000E0A6E0AC004F0056A1200000E5E
:1031CC00136E000E126E0BD011C004F0056A0FC006
:1031DC0006F010C007F011EC16F0124A132A125028
:1031EC000D24D96E13500E20DA6EDF50116E115073
:1031FC00D8B41200E9D701EE00F0820EEE6AE806B0
:10320C00FDE100EEE0F01A0EEE6AE806FDE17A6AE6
:10321C00796A786A776A766A7B907B92000EF86E90
:10322C00000170EF0FF0BF0E066EFF0E076E04C0AC
:10323C0008F005C009F0065008260750092209506D
:10324C0006E11A0E085CD8B002D0010E01D0000EB7
:10325C00046E056A1200D00E066EFF0E076E04C0D7
:10326C0008F005C009F0065008260750092209503D
:10327C0006E10A0E085CD8B002D0010E01D0000E97
:10328C00046E056A12000450051006100710D8B41D
:10329C0008D0000E041A000E051A000E061A800E35
:1032AC00071A04C004F005C005F006C006F007C0FC
:1032BC0007F0120004C006F005C007F002D0044A63
:1032CC00052A04C0D9FF05C0DAFFDF50D8A4F7D710
:1032DC000650045C046E07500558056E120004502D
:1032EC000602F3CF08F0F4CF09F004500702F350B4
:1032FC00092605500602F350092608C004F009C03F
:10330C0005F01200AC8AAB88AC98AB8EAC94B89636
:10331C000C0EAF6E1200046EACA2FED704C0ADFF53
:0C332C0012009EAAFED7AE501200120044
:020000040020DA
:08000000FFFFFFFFFFFFFFFF00
:020000040030CA
:0E000000FF02181EFF8181FF0FC00FE00F40AE
:00000001FF
