:020000040000FA
:04000000B7EF3EF028
:107D6E0000018DEF3FF0026E025001140009D8B4ED
:107D7E0002D0010E1200000E1200066E06B002D0E6
:107D8E00849001D08480420EE82EFED700D08492DB
:107D9E0005501BEC3FF01200000E956E96929690D9
:107DAE00000E836E84908492270E056EF50EE82EDB
:107DBE00FED7052EFCD700F0000E066E300E1BEC23
:107DCE003FF00D0E056EFC0EE82EFED7052EFCD7ED
:107DDE00062A020E0664F2D7020E1BEC3FF01A0EB4
:107DEE00E82EFED700D0280E1BEC3FF01A0EE82E20
:107DFE00FED700D0010E1BEC3FF0060E056E300EC6
:107E0E00E82EFED7052EFCD700D00C0E1BEC3FF053
:107E1E001A0EE82EFED700D0060E1BEC3FF01A0EFF
:107E2E00E82EFED700D01200046E100E016E045024
:107E3E00BAEC3EF0036E033A83500318EF0B0318AF
:107E4E00836E200E016E0450BAEC3EF0036E033AC0
:107E5E00034683500318DF0B0318836E400E016E2A
:107E6E000450BAEC3EF0036E033A034603468350C9
:107E7E000318BF0B0318836E800E016E0450BAEC0C
:107E8E003EF0036E03320332835003187F0B031848
:107E9E00836E84828492420EE82EFED700D0010EAD
:107EAE00016E0450BAEC3EF0036E033A8350031891
:107EBE00EF0B0318836E020E016E0450BAEC3EF007
:107ECE00036E033A034683500318DF0B0318836EC9
:107EDE00040E016E0450BAEC3EF0036E033A0346F4
:107EEE00034683500318BF0B0318836E080E016EF2
:107EFE000450BAEC3EF0036E033203328350031883
:107F0E007F0B0318836E8482849212000F0EC16E53
:107F1E00D3EC3EF0830E056E000EC4EC3EF0500E18
:107F2E00056E010EC4EC3EF0490E056E010EC4EC5A
:107F3E003EF0430E056E010EC4EC3EF0310E056EA2
:107F4E00010EC4EC3EF0380E056E010EC4EC3EF090
:107F5E00460E056E010EC4EC3EF0340E056E010E9B
:107F6E00C4EC3EF0350E056E010EC4EC3EF0320E42
:107F7E00056E010EC4EC3EF0300E056E010EC4EC23
:107F8E003EF0C30E056E000EC4EC3EF04C0E056EB8
:107F9E00010EC4EC3EF0430E056E010EC4EC3EF035
:107FAE00440E056E010EC4EC3EF0200E056E010E61
:107FBE00C4EC3EF0340E056E010EC4EC3EF0200E05
:107FCE00056E010EC4EC3EF0420E056E010EC4ECC1
:107FDE003EF0490E056E010EC4EC3EF0540E056ED9
:107FEE00010EC4EC3EF0530E056E010EC4EC3EF0D5
:027FFE00FFD7AB
:020000040020DA
:08000000FFFFFFFFFFFFFFFF00
:020000040030CA
:0E000000FF02181EFF8181FF0FC00FE00F40AE
:00000001FF
