:020000040000FA
:0400000096EF03F084
:10060000004D6963726F636F6E74726F6C61646FBB
:100610007220504943313846343532300D0A004C8F
:100620004431202D204143454E4445204C45442E25
:100630000D0A00444C31202D204150414741204CAF
:0D06400045442E0D0A004C30004C310000E6
:10064E00000E936E000E816E0F0EC16EA2EC03F0C3
:10065E00010E076E060E086E81EC03F01F0E076E7C
:10066E00060E086E81EC03F0330E076E060E086E52
:10067E0081EC03F09EAAFED7010E0524D96EDA6A2C
:10068E00000EDA22B1EC03F0DF6E010E0524D96EF6
:10069E00DA6A000EDA220D0EDE18D8A429D04C0E1E
:1006AE000118D8A40FD0440E0218D8A40BD0310EC6
:1006BE000318D8A407D08180490E076E060E086E67
:1006CE0081EC03F0440E0118D8A40FD04C0E021882
:1006DE00D8A40BD0310E0318D8A407D08190460EA3
:1006EE00076E060E086E81EC03F0000E056EC2D783
:1006FE00052AC0D70AD007C0F6FF08C0F7FF0800CA
:10070E00F550ABEC03F0074A082A07C0F6FF08C005
:10071E00F7FF0800F5500009D8B41200ECD7056AAF
:10072E00046A036A026A016A000EF86E060EF76E1C
:10073E00000127EF03F0AC8AAB88AC98AB8EAC947B
:10074E00B8960C0EAF6E1200066EACA2FED706C0A7
:0C075E00ADFF12009EAAFED7AE501200A4
:020000040020DA
:08000000FFFFFFFFFFFFFFFF00
:020000040030CA
:0E000000FF02181EFF8181FF0FC00FE00F40AE
:00000001FF
