:04000000B9EF00F064
:100018004D80D8CF09F0E8CF0AF0E0CF0BF0D9CF68
:100028000CF0DACF0DF0F2A41CEF00F01EEF00F098
:10003800A8EF00F04B4A4C2A4C5009E1050E4B5CE6
:10004800D8A029EF00F02BEF00F08AEF00F0000EA7
:100058004C6E010E4B6E8AEF00F00F0E836ED89037
:100068004934D96E4A34DA6E290ED926000EDA22BE
:10007800DECF07F0DDCF08F0800E0710016E0850C4
:10008800026E5FEC02F00E0E836EA8EF00F00F0E0A
:10009800836ED8904734D96E4834DA6E290ED92643
:1000A800000EDA22DECF01F0DDCF02F05FEC02F0C5
:1000B8000D0E836EA8EF00F00F0E836ED8904534B6
:1000C800D96E4634DA6E290ED926000EDA22DECF32
:1000D80001F0DDCF02F05FEC02F00B0E836EA8EFAB
:1000E80000F00F0E836ED8904334D96E4434DA6E24
:1000F800290ED926000EDA22DECF01F0DDCF02F07C
:100108005FEC02F0070E836EA8EF00F04BC007F01B
:100118004CC008F00850000AD8B495EF00F0A8EFDA
:1001280000F00750010AD8B431EF00F0030AD8B440
:100138004BEF00F0010AD8B460EF00F0070AD8B41A
:1001480075EF00F0A8EF00F0000ED76E1F0ED66E08
:10015800F2940DC0DAFF0CC0D9FF0BC0E0FF0AC053
:10016800E8FF09C0D8FF4D9010008BEF02F0010E98
:10017800C26E0E0EC16E870EC06E000E966E000E19
:10018800846E000E956EA00EF26EC50ED56E000E32
:10019800D76E1F0ED66EC282C2B2D5EF00F0D7EF6F
:1001A80000F0D0EF00F0C4CF41F0426A4150276E12
:1001B800C350416E27C042F041C00EF042C00FF05C
:1001C800106A116A880E126E130E136E000E146EEA
:1001D800000E156EF8EC01F00EC01AF00FC01BF0FF
:1001E80010C01CF011C01DF0FF0E1E6E030E1F6E16
:1001F800000E206E000E216E1FEC01F01AC03DF0BB
:100208001BC03EF01CC03FF01DC040F03DC01AF0BE
:100218003EC01BF071EC01F0040E286E0C0E276E28
:10022800340EE82EFED7272EFCD7282EFAD7CFEF8C
:1002380000F0B9EF00F0000E226E000E236E000EE3
:10024800246E000E256E1E501F1020102110D8B4E9
:1002580030EF01F032EF01F068EF01F0010E266E89
:100268003CEF01F0D8901E361F3620362136262A5C
:1002780021AE41EF01F043EF01F036EF01F0D890E5
:1002880022362336243625361E501A5C1F501B583A
:1002980020501C5821501D58D8A055EF01F057EF99
:1002A80001F060EF01F01E501A5E1F501B5A2050DB
:1002B8001C5A21501D5A2280D890213220321F32D8
:1002C8001E32262E43EF01F022C01AF023C01BF085
:1002D80024C01CF025C01DF012001AC00EF01BC06F
:1002E8000FF0030E116EE80E106EBEEC01F00EC09A
:1002F80049F00FC04AF0000E116E640E106E1AC05D
:100308000EF01BC00FF0BEEC01F00EC015F00FC0D0
:1003180016F0000E186E0A0E176E2DEC02F015C0BE
:1003280047F016C048F0000E116E0A0E106E1AC083
:100338000EF01BC00FF0BEEC01F00EC015F00FC0A0
:1003480016F0000E186E0A0E176E2DEC02F015C08E
:1003580045F016C046F01AC015F01BC016F0000E86
:10036800186E0A0E176E2DEC02F015C043F016C079
:1003780044F01200000E136E000E126E1050111091
:10038800D8B4C9EF01F0CBEF01F0F3EF01F0010EA3
:10039800146ED3EF01F0D89010361136142A11AE2E
:1003A800D8EF01F0DAEF01F0CFEF01F0D890123674
:1003B800133610500E5C11500F58D8A0E6EF01F01C
:1003C800E8EF01F0EDEF01F010500E5E11500F5AFA
:1003D8001280D89011321032142EDAEF01F012C0C8
:1003E8000EF013C00FF01200000E166E000E176EFE
:1003F800000E186E000E196E0EA005EF02F007EF42
:1004080002F00FEF02F01250162613501722145064
:10041800182215501922D89012361336143615366C
:10042800D890113210320F320E320E500F101010B9
:100438001110D8A422EF02F024EF02F000EF02F02E
:1004480016C00EF017C00FF018C010F019C011F048
:10045800120017501810D8B434EF02F036EF02F03B
:100468005AEF02F0010E196E3EEF02F0D8901736DF
:100478001836192A18AE43EF02F045EF02F03AEFAA
:1004880002F01750155C18501658D8A04EEF02F01D
:1004980050EF02F054EF02F01750155E1850165A3C
:1004A800D89018321732192E45EF02F015C015F002
:1004B80016C016F01200000E066E800E056E05506E
:1004C8000114036E06500214046E03500410D8B4CD
:1004D80070EF02F072EF02F075EF02F0848076EFB1
:1004E80002F0849084828492D8900630036E05309E
:1004F800056E03C006F005500610D8A486EF02F07A
:1005080088EF02F063EF02F0848484941200500EA6
:10051800F66E050EF76E000EF86E00EE29F010EE7E
:1005280014F00900F5CFEEFFE550E150FAE100EED6
:100538003DF0100EEE6AE806FDE14D904D92000E7A
:10054800F86E0001BBEF00F03F0006005B004F00B3
:0C05580066006D007D0007007F006F0052
:020000040020DA
:08000000FFFFFFFFFFFFFFFF00
:020000040030CA
:0E000000FF02181EFF8181FF0FC00FE00F40AE
:00000001FF
