:0400000007EF3EF0D8
:107C0E00000136EF3EF0000E066E800E056E05503A
:107C1E000114036E06500214046E03500410D8B4FF
:107C2E001BEF3EF01DEF3EF020EF3EF0848021EF83
:107C3E003EF0849084828492D8900630036E053094
:107C4E00056E03C006F005500610D8A431EF3EF0C5
:107C5E0033EF3EF00EEF3EF08484849412000F0E4C
:107C6E00C16E000E966E000E846E000E956E0E0E98
:107C7E00836E000E026EBF0E016E0AEC3EF00D0E0C
:107C8E00076EFC0EE82EFED7072EFCD70D0E836E68
:107C9E00000E026E860E016E0AEC3EF00D0E076EA1
:107CAE00FC0EE82EFED7072EFCD70B0E836E000EB1
:107CBE00026EDB0E016E0AEC3EF00D0E076EFC0E30
:107CCE00E82EFED7072EFCD7070E836E000E026E2F
:107CDE00CF0E016E0AEC3EF00D0E076EFC0EE82E76
:0E7CEE00FED7072EFCD73EEF3EF000EF00F071
:020000040020DA
:08000000FFFFFFFFFFFFFFFF00
:020000040030CA
:0E000000FF02181EFF8181FF0FC00FE00F40AE
:00000001FF
