:0400000032EF3EF0AD
:107C6400000135EF3EF0000E046EBF0E036E0F0EE2
:107C7400C16E000E966E000E846E000E956E0E0E92
:107C8400836E000E066E800E056E05500314016EA1
:107C940006500414026E01500210D8B454EF3EF0A2
:107CA40056EF3EF059EF3EF084805AEF3EF0849058
:107CB40084828492D8900630016E0530056E01C02E
:107CC40006F005500610D8A46AEF3EF06CEF3EF0C3
:107CD40047EF3EF0848484941F0E026E710E016E91
:107CE4001E0EE82EFED7012EFCD7022EFAD700D0A6
:087CF40043EF3EF000EF00F049
:020000040020DA
:08000000FFFFFFFFFFFFFFFF00
:020000040030CA
:0E000000FF02181EFF8181FF0FC00FE00F40AE
:00000001FF
