:020000040000FA
:040000006AEF1AF099
:100600000025302E316620256343002530346C757B
:10061000206D560054656D703A00566F6C743A0048
:10062000494E46004E414E00696E66006E616E0096
:070630006C66006C75000010
:10063800000E00019B6F000E9A6F57C0ACF058C0B7
:10064800ADF059C0AEF05AC0AFF0AFAF16D0000E43
:100658009B6F010E9A6FACC001F0ADC002F0AEC046
:1006680003F0AFC004F02BEC1AF001C0ACF002C0EC
:10067800ADF003C0AEF004C0AFF0000E0001B36FE0
:10068800000EB26FEEC09FF0EFC0A0F09A519B1120
:10069800D8A402D0F2A513D09A519B11D8A404D0A3
:1006A800000E856F2B0E03D0000E856F2D0E846F04
:1006B80084C000F1B24BB32B9F07D8A0A007ACC0F1
:1006C80001F0ADC002F0AEC003F0AFC004F045ECDD
:1006D80015F001040210D8A44CD0BF0E5C6EFF0EBA
:1006E8005D6E5B505E6E5F6A5C505E265D505F2299
:1006F8005F5006E11A0E5E5CD8B002D0010E01D040
:10070800000E0001866F876B86518711D8B40DD013
:10071800000EB225016E010EB321026E200E036E8B
:10072800060E046E26EC19F00CD0000EB225016EF0
:10073800010EB321026E280E036E060E046E26EC1F
:1007480019F00001FD0E9F27FF0EA02355C011F0E0
:1007580056C012F0000E136E010E146E9FC015F0F5
:10076800A0C016F015EC17F011C055F012C056F0E5
:100778001200ACC001F0ADC002F0AEC003F0AFC0D3
:1007880004F045EC15F001500210D8A435D0BF0E86
:100798005C6EFF0E5D6E5B505E6E5F6A5C505E263F
:1007A8005D505F225F5006E11A0E5E5CD8B002D041
:1007B800010E01D0000E0001886F896B88518911E4
:1007C800D8B40DD0000EB225016E010EB321026E11
:1007D800240E036E060E046E26EC19F0B2D7000E36
:1007E800B225016E010EB321026E2C0E036E060EA9
:1007F800046E26EC19F0A5D7000E0001B46F000EA8
:10080800B56F800EB66F3F0EB76F000EB16F000E5A
:10081800B06FACC001F0ADC002F0AEC003F0AFC025
:1008280004F0000E056E000E066E000E076E000E38
:10083800086EAAEC17F0D8A01ED076D0B4C00FF07E
:10084800B5C010F0B6C011F0B7C012F0000E136EAC
:10085800000E146E200E156E410E166E1DEC0BF078
:100868000FC0B4F010C0B5F011C0B6F012C0B7F0A8
:100878000001B04BB12BACC028F0ADC029F0AEC020
:100888002AF0AFC02BF0000E136E000E146E200E6F
:10089800156E410E166EB4C00FF0B5C010F0B6C09C
:1008A80011F0B7C012F01DEC0BF00FC02CF010C007
:1008B8002DF011C02EF012C02FF076EC14F0D8A055
:1008C8001FD0BCD7B4C028F0B5C029F0B6C02AF0F4
:1008D800B7C02BF0000E2C6E000E2D6E200E2E6E63
:1008E800410E2F6E4CEC0EF028C0B4F029C0B5F0C4
:1008F8002AC0B6F02BC0B7F00001B007D8A0B107E6
:10090800ACC028F0ADC029F0AEC02AF0AFC02BF0C3
:10091800B4C02CF0B5C02DF0B6C02EF0B7C02FF083
:1009280076EC14F0D8A0CED75BC007F0086A77EC55
:1009380019F007500001A16FA1C09EF0670EA11920
:10094800D8A419D0F051F111D8A404D0000EF16F39
:10095800010EF06FF1BF05D0F15108E1F005D8B0F4
:1009680005D0000E9D6F060E9C6F08D0F0C09CF05D
:10097800F1C09DF003D0F1AFF9D7F3D7670EA119F5
:10098800D8A422D0B1AF06D0FC0EB05DFF0EB1598D
:10099800D8A018D0FF0E5C6EFF0E5D6E9CC05EF096
:1009A8009DC05FF05C505E265D505F22B0515E5C7A
:1009B8005F50800A606EB151800A6058D8A002D09A
:1009C800660E01D0650E9E6F9CC094F09DC095F098
:1009D800670EA119D8A405D0660E9E19D8B4B1AF78
:1009E80002D0944B952B660E9E19D8A416D0B1AFA1
:1009F8000CD0000EB46F000EB56F800EB66F3F0EB0
:100A0800B76F000EB16F000EB06F670EA119D8B4A2
:100A180004D0B0519427B1519523000EAB6F000E4E
:100A2800AA6FACC0A2F0ADC0A3F0AEC0A4F0AFC036
:100A3800A5F0B4C080F0B5C081F0B6C082F0B7C0F0
:100A480083F07BD0A2C028F0A3C029F0A4C02AF06C
:100A5800A5C02BF0B4C02CF0B5C02DF0B6C02EF058
:100A6800B7C02FF04CEC0EF028C041F029C042F07E
:100A78002AC043F02BC044F09DEC10F041C0A6F012
:100A880042C0A7F043C0A8F044C0A9F0A6C001F036
:100A9800A7C002F0A8C003F0A9C004F011EC16F03A
:100AA80001C098F002C099F0A2C028F0A3C029F0B4
:100AB800A4C02AF0A5C02BF0B4C013F0B5C014F040
:100AC800B6C015F0B7C016F0A6C00FF0A7C010F05A
:100AD800A8C011F0A9C012F01DEC0BF00FC02CF04B
:100AE80010C02DF011C02EF012C02FF09DEC19F09F
:100AF80028C0A2F029C0A3F02AC0A4F02BC0A5F0FA
:100B0800B4C028F0B5C029F0B6C02AF0B7C02BF0A1
:100B1800000E2C6E000E2D6E200E2E6E410E2F6EC6
:100B28004CEC0EF028C0B4F029C0B5F02AC0B6F0DD
:100B38002BC0B7F00001AA4BAB2B9451AA5DAB5167
:100B4800800A5C6E9551800A5C58D8A07BD7B4C0E7
:100B58000FF0B5C010F0B6C011F0B7C012F0000E1B
:100B6800136E000E146EA00E156E400E166E1DEC60
:100B78000BF00FC0A6F010C0A7F011C0A8F012C06B
:100B8800A9F0A2C028F0A3C029F0A4C02AF0A5C0EB
:100B98002BF0A6C02CF0A7C02DF0A8C02EF0A9C03D
:100BA8002FF076EC14F0D8B003D0000E000118D066
:100BB800A2C001F0A3C002F0A4C003F0A5C004F0D5
:100BC800A6C005F0A7C006F0A8C007F0A9C008F0A5
:100BD800AAEC17F0D8A00BD0000198B108D0000EED
:100BE800A66F000EA76F000EA86F000EA96FACC00D
:100BF80001F0ADC002F0AEC003F0AFC004F0A6C073
:100C080005F0A7C006F0A8C007F0A9C008F0C6EC18
:100C18000CF001C0A2F002C0A3F003C0A4F004C00D
:100C2800A5F080C0B4F081C0B5F082C0B6F083C032
:100C3800B7F0650E00019E19D8B405D0B0C096F083
:100C4800B1C097F004D0000E976F000E966F000E9B
:100C5800936F000E926F000E916F000E906F000E52
:100C6800AB6F000EAA6FC6D0A2C028F0A3C029F0AF
:100C7800A4C02AF0A5C02BF0B4C02CF0B5C02DF04C
:100C8800B6C02EF0B7C02FF04CEC0EF028C041F0E3
:100C980029C042F02AC043F02BC044F09DEC10F06C
:100CA80041C0A6F042C0A7F043C0A8F044C0A9F0D4
:100CB800A6C001F0A7C002F0A8C003F0A9C004F0C4
:100CC80011EC16F001C098F002C099F00001F2B9D9
:100CD8000CD098519911D8A408D0670EA119D8B48E
:100CE80097AF03D0904B912B39D092519311D8B430
:100CF80097AF22D0000EB225D96E010EB321DA6E5D
:100D08002E0EDF6EB24BB32B9F07D8A0A007000EA4
:100D1800936F010E926F10D0000EB225D96E010E9E
:100D2800B321DA6E300EDF6EB24BB32B9F07D8A01B
:100D3800A0079007D8A0910790519111D8A4ECD79B
:100D4800000EB225D96E010EB321DA6E9851300F1C
:100D5800DF6EB24BB32B9F07D8A0A007A2C028F024
:100D6800A3C029F0A4C02AF0A5C02BF0B4C013F08A
:100D7800B5C014F0B6C015F0B7C016F0A6C00FF095
:100D8800A7C010F0A8C011F0A9C012F01DEC0BF01C
:100D98000FC02CF010C02DF011C02EF012C02FF093
:100DA8009DEC19F028C0A2F029C0A3F02AC0A4F035
:100DB8002BC0A5F0B4C028F0B5C029F0B6C02AF001
:100DC800B7C02BF0000E2C6E000E2D6E200E2E6E6E
:100DD800410E2F6E4CEC0EF028C0B4F029C0B5F0CF
:100DE8002AC0B6F02BC0B7F000019607D8A0970725
:100DF800AA4BAB2B9451AA5DAB51800A5C6E9551FE
:100E0800800A5C58D8B008D0B3BF2ED7B35104E1DC
:100E18004B0EB25DD8A028D792519311D8B4F2A93D
:100E28000AD0000EB225D96E010EB321DA6E2E0E4D
:100E3800DF6EB24BB32B000EB225D96E010EB32173
:100E4800DA6E000EDF6E650E9E19D8A47FD4000EF0
:100E5800AB6F4F0EAA6F000EAA25D96E010EAB21FB
:100E6800DA6E000EDF6E000E9B6F000E9A6FB1AF48
:100E780008D0000E9B6F010E9A6FB06DB11FD8B0ED
:100E8800B12B000E9D6F020E9C6F2BD0AA07D8A025
:100E9800AB07000EAA25D96E010EAB21DA6EB0C0E1
:100EA80001F0B1C002F0000E046E0A0E036E6FEC82
:100EB80018F00150300FDF6EB0C001F0B1C002F081
:100EC800000E046E0A0E036EEFEC17F001C0B0F0CE
:100ED80002C0B1F000019C07D8A09D079F07D8A0C9
:100EE800A007B051B111D8A4D1D79DBF05D09D514D
:100EF800CDE19C05D8B0CAD7AA07D8A0AB079A51AC
:100F08009B11D8A404D0000E8B6F2B0E03D0000EBB
:100F18008B6F2D0E8A6F000EAA25D96E010EAB219C
:100F2800DA6E8AC0DFFF9F07D8A0A007AA07D8A05B
:100F3800AB07BF0E5C6EFF0E5D6E5B505E6E5F6A48
:100F48005C505E265D505F225F5006E11A0E5E5CC3
:100F5800D8B002D0010E01D0000E8E6F8F6B8E516B
:100F68008F11D8A404D0000E8D6F650E03D0000E2B
:100F78008D6F450E8C6F000EAA25D96E010EAB2120
:100F8800DA6E8CC0DFFF9F07D8A0A007000EB2253D
:100F9800016E010EB321026E000EAA25036E010E2A
:100FA800AB21046E26EC19F0AAEF03F063C0D9FF59
:100FB80064C0DAFFDECFF6FFDDCFF7FF0800F5509B
:100FC800250AD8A41CD363C0D9FF64C0DAFFDE2A7F
:100FD800000EDD22000E0001EF6F000EEE6FEEC076
:100FE800F2F0EFC0F3F0F069F169000EB96F000E8E
:100FF80014D0F28163C0D9FF64C0DAFFDE2A000E84
:10100800DD222ED0F283F6D7F285F4D7F287F2D715
:10101800F289F0D7000EB96F010EB86F21D063C006
:10102800D9FF64C0DAFFDECFF6FFDDCFF7FF080097
:10103800F550676E686A6850000AD8A4EBD7675005
:10104800200AD8B4E3D7030AD8B4E2D7080AD8B438
:10105800DBD7060AD8B4CDD71D0AD8B4D3D7DAD788
:10106800B851B911D8B4DBD7F2B1F29363C0D9FF44
:1010780064C0DAFFDECFF6FFDDCFF7FF0800F550DA
:101088002A0AD8A423D063C0D9FF64C0DAFFDE2AB5
:10109800000EDD2265C0D9FF66C0DAFFDFCF67F03A
:1010A800020EDE26DFCF68F0000EDD2267C0D9FF12
:1010B80068C0DAFFDECFEEF0DDCFEFF0EFAF40D063
:1010C800F281EE6DEF1FD8B0EF2B3AD063C0D9FF95
:1010D80064C0DAFFDECF08F0DDCF09F051EC12F082
:1010E80008C0EEF009C0EFF007D063C0D9FF64C0B4
:1010F800DAFFDE2A000EDD22D00E676EFF0E686E64
:1011080063C0D9FF64C0DAFFDECFF6FFDDCFF7FF9B
:101118000800F550696E6A6A6750692668506A2245
:101128006A5006E10A0E695CD8B002D0010E01D0FF
:10113800000E0001BA6FBB6BBA51BB11D8A4D5D74A
:1011480063C0D9FF64C0DAFFDECFF6FFDDCFF7FF5B
:101158000800F5502E0AD8A46ED0000EF16F000ECC
:10116800F06F63C0D9FF64C0DAFFDE2A000EDD220B
:1011780063C0D9FF64C0DAFFDECFF6FFDDCFF7FF2B
:101188000800F5502A0AD8A41CD063C0D9FF64C04F
:10119800DAFFDE2A000EDD2265C0D9FF66C0DAFF5D
:1011A800DFCF67F0020EDE26DFCF68F0000EDD220B
:1011B80067C0D9FF68C0DAFFDECFF0F0DDCFF1F00D
:1011C8003AD063C0D9FF64C0DAFFDECF08F0DDCFC4
:1011D80009F051EC12F008C0F0F009C0F1F007D0A6
:1011E80063C0D9FF64C0DAFFDE2A000EDD22D00E0C
:1011F800676EFF0E686E63C0D9FF64C0DAFFDECF8A
:10120800F6FFDDCFF7FF0800F550696E6A6A675090
:10121800692668506A226A5006E10A0E695CD8B0ED
:1012280002D0010E01D0000E0001BC6FBD6BBC5195
:10123800BD11D8A4D5D763C0D9FF64C0DAFFDECF0B
:10124800F6FFDDCFF7FF0800F550076E086A77EC68
:1012580019F007500001CC6FCC51D8B435D063C019
:10126800D9FF64C0DAFFDECF67F0DDCF68F0010E8A
:101278006726000E682267C0F6FF68C0F7FF0800FF
:10128800F550076E086A77EC19F007500001CD6F2A
:10129800CD51D8B419D063C0D9FF64C0DAFFDECF0E
:1012A80067F0DDCF68F0020E6726000E682267C07F
:1012B800F6FF68C0F7FF0800F550076E086A77EC7C
:1012C80019F007500001CE6F63C0D9FF64C0DAFF80
:1012D800DECFF6FFDDCFF7FF0800F550630AD8A48C
:1012E80026D063C0D9FF64C0DAFFDE2A000EDD22F3
:1012F80065C0D9FF66C0DAFFDFCF67F0020EDE26D1
:10130800DFCF68F0000EDD2267C0D9FF68C0DAFFC2
:10131800DF50CF6F61C01CF062C01DF0CFC01EF05F
:101328004FEC19F01CC061F01DC062F01200660E8F
:10133800CC19D8A43FD063C0D9FF64C0DAFFDECF90
:10134800F6FFDDCFF7FF0800F5CFCFF063C0D9FF78
:1013580064C0DAFFDE2A000EDD2265C0D9FF66C050
:10136800DAFFDFCF67F0040EDE26DFCF68F0000E6D
:10137800DD2267C0D9FF68C0DAFFDECFC8F0DECF54
:10138800C9F0DECFCAF0DECFCBF061C055F062C045
:1013980056F0C8C057F0C9C058F0CAC059F0CBC001
:1013A8005AF0CFC05BF01CEC03F055C061F056C09A
:1013B80062F01200CC0E016E000E026E300E036E4B
:1013C800060E046E000E066E020E056E91EC13F00A
:1013D80001500210D8A456D063C0D9FF64C0DAFF08
:1013E800DECF67F0DDCF68F0010E6726000E6822B9
:1013F80067C0F6FF68C0F7FF0800F5CFCFF0BF0E53
:10140800676EFF0E686E63C0D9FF64C0DAFFDECF77
:10141800F6FFDDCFF7FF0800F550696E6A6A67507E
:10142800692668506A226A5006E11A0E695CD8B0CB
:1014380002D0010E01D0000E0001BE6FBF6BBE517D
:10144800BF1165C0D9FF66C0DAFFDFCF67F0040EB1
:10145800DE26DFCF68F0000EDD2267C0D9FF68C046
:10146800DAFFDECFC8F0DECFC9F0DECFCAF0DECFBC
:10147800CBF0020E63C0D9FF64C0DAFFDE26000E8F
:10148800DD2283D763C0D9FF64C0DAFFDECFF6FF61
:10149800DDCFF7FF0800F550750AD8A441D063C026
:1014A800D9FF64C0DAFFDE2A000EDD2265C0D9FF4D
:1014B80066C0DAFFDFCF67F0020EDE26DFCF68F006
:1014C800000EDD2267C0D9FF68C0DAFFDECF69F001
:1014D800DDCF6AF069C0C0F06AC0C1F00001C26B1C
:1014E800C36BC46BC56BC66BC76B61C01CF062C0B5
:1014F8001DF0C0C01EF0C1C01FF0C2C020F0C3C0A4
:1015080021F0C4C022F0C5C023F0C6C024F0C7C073
:1015180025F078EC11F01CC061F01DC062F01200DB
:1015280063C0D9FF64C0DAFFDECF01F0DDCF02F07F
:10153800330E036E060E046E000E066E020E056E66
:1015480091EC13F001500210D8A42AD0020E63C007
:10155800D9FF64C0DAFFDE26000EDD2265C0D9FFA0
:1015680066C0DAFFDFCF67F0040EDE26DFCF68F053
:10157800000EDD2267C0D9FF68C0DAFFDECF69F050
:10158800DECF6AF0DECF6BF0DECF6CF06950000181
:10159800C06F6A50C16F6B50C26F6C50C36FA1D7D8
:1015A80063C0D9FF64C0DAFFDECFF6FFDDCFF7FFF7
:1015B8000800F550250AD8A416D063C0D9FF64C026
:1015C800DAFFDE2A000EDD22000E026E250E016E05
:1015D80061C003F062C004F0C5EC16F0000E626E44
:1015E800010E616E120063C0D9FF64C0DAFFDE2A03
:1015F800000EDD22000E626E000E616E120063C0E6
:10160800D9FF64C0DAFFDECFF6FFDDCFF7FF0800B1
:10161800F550016E026A61C003F062C004F0C5ECC7
:1016280016F063C0D9FF64C0DAFFDE2A000EDD229F
:10163800D5D71250800B1B6E12501224216E11BE8A
:1016480021802150D8B40DD02128D8A408D0000E6C
:101658000F6E000E106E000E116E000E126E118EBF
:1016680008D0000E0F6E000E106E000E116E000EE8
:10167800126E1650800B1B1A16501624206E15BEBB
:1016880020802050D8B40DD02028D8A408D0000E2F
:10169800136E000E146E000E156E000E166E158E6B
:1016A80008D0000E136E000E146E000E156E000E9C
:1016B800166E2050D8B403D02150D8A409D0000EFB
:1016C8000F6E000E106E000E116E000E126E1200DC
:1016D80015500F02F3CF26F0F4CF27F026501C6EDA
:1016E8001D6A1E6A1F6A2750226E236A246A256AA9
:1016F80014501002F3CF26F0F4CF27F026501C2602
:10170800000E1D221E221F2227502226000E2322F1
:101718002422252213501102F3CF26F0F4CF27F00C
:1017280026501C26000E1D221E221F22275022266C
:10173800000E2322242225221EC01FF01DC01EF0E9
:101748001CC01DF01C6A13501002F3CF26F0F4CF12
:1017580027F026501C2627501D22000E1E22000EA0
:101768001F2214500F02F3CF26F0F4CF27F0265093
:101778001C2627501D22000E1E22000E1F221EC0EE
:101788001FF01DC01EF01CC01DF01C6A13500F0274
:10179800F3CF26F0F4CF27F026501C2627501D2221
:1017A800000E1E22000E1F2215501002F3CF26F045
:1017B800F4CF27F02650222627502322000E242279
:1017C800000E252214501102F3CF26F0F4CF27F093
:1017D8002650222627502322000E2422000E2522DE
:1017E80015501102F3CF26F0F4CF27F02650176ECC
:1017F8002750186E196A1A6A19C01AF018C019F019
:1018080017C018F0176A17502226185023221950AB
:1018180024221A5025221CC017F01DC018F01EC023
:1018280019F01FC01AF0190E05D0D8901A321932C3
:1018380018321732E82EF9D71750222618502322CB
:10184800195024221A5025221EC01FF01DC01EF058
:101858001CC01DF01C6A205021C017F0186A1726FA
:10186800000E1822820E1724266EFF0E1820276EEF
:101878000FD0D89022362336243625361FBE228034
:10188800D8901C361D361E361F362606D8A02706C9
:1018980024AEEFD7000E206E1FAE17D0FF0E1C141B
:1018A800176EFF0E1D14186EFF0E1E14196E7F0E94
:1018B8001F141A6E1750181019101A10D8B403D024
:1018C800010E206E02D022B0FBD72050D8B41FD012
:1018D800010E2226000E23222422252225A017D01D
:1018E80022C017F023C018F024C019F025C01AF040
:1018F8001A341A3219321832173217C022F018C0A7
:1019080023F019C024F01AC025F0264A272A27BE3A
:101918000DD0275003E12628D8A008D0000E226E4B
:10192800000E236E800E246E7F0E20D027BE05D0B9
:1019380027500EE12604D8B00BD0000E226E000E00
:10194800236E000E246E000E256E000E1B6E0FD047
:1019580026C021F0FF0E2216FF0E23167F0E241636
:10196800000E251621B0248ED8902130256E1B50EC
:10197800251222C00FF023C010F024C011F025C09A
:1019880012F012000450800B0D6E045004240F6EE8
:1019980003BE0F800F50D8B40DD00F28D8A408D09C
:1019A800000E016E000E026E000E036E000E046E35
:1019B800038E06D0000E016E000E026E000E036E3E
:1019C800000E046E0850800B0E6E0D500E18D8A431
:1019D8000D8C085008240E6E07BE0E800E50D8B429
:1019E8000DD00E28D8A408D0000E056E000E066E85
:1019F800000E076E000E086E078E06D0000E056EEC
:101A0800000E066E000E076E000E086E0F500E5C7C
:101A1800D8B022D00DAC02D0800E0D1A0FC010F035
:101A28000EC00FF010C00EF001C010F005C001F09C
:101A380010C005F002C010F006C002F010C006F099
:101A480003C010F007C003F010C007F004C010F086
:101A580008C004F010C008F0000E106E0F500EC041
:101A680009F00A6A095E000E0A5A0ABE2CD00A500A
:101A780004E11A0E095CD8A026D001500210031008
:101A88000410D8B402D0010E01D0000E106E000E62
:101A9800016E000E026E000E036E000E046E0EC084
:101AA8000FF015D010A005D0D89010300109106E95
:101AB80002D0D890103201B0108E043404320332B0
:101AC800023201320F2A0E500F5CD8A0EBD70DBCA2
:101AD80028D00F50D8A409D0000E016E000E026E57
:101AE800000E036E000E046E12000550012606500B
:101AF8000222075003220850042204A071D010A02B
:101B080005D0D89010300109106E02D0D89010324C
:101B180001B0108E043404320332023201320F2A2B
:101B28005FD00550015C0650025807500358045016
:101B3800800A096E0850800A0958D8B025D001508B
:101B4800055C096E025006580A6E035007580B6E62
:101B5800045008580C6EFF0E0924016EFF0E0A206F
:101B6800026EFF0E0B20036EFF0E0C20046E800E1B
:101B78000D1A106C1050D8A40FD0010E0126000EBB
:101B880002220322042208D00550015E0650025AA0
:101B98000750035A0850045A015002100310041049
:101BA800D8A41CD01050D8A419D0000E016E000E75
:101BB800026E000E036E000E046E1200D8900136FD
:101BC80002360336043610BE018010A002D0D88039
:101BD80001D0D89010360F50D8A40F0603AEEED718
:101BE800000E0E6E10AE0BD010C009F07F0E091655
:101BF800D8B403D0010E0E6E02D001B0FBD70E5040
:101C0800D8B420D0010E0126000E0222032204229D
:101C180004A018D001C009F002C00AF003C00BF0FC
:101C280004C00CF00C340C320B320A32093209C0F1
:101C380001F00AC002F00BC003F00CC004F00F283A
:101C4800D8A40F2A0F28D8B403D00F50D8A40DD089
:101C5800000E016E000E026E000E036E000E046E82
:101C68000F50D8A402D0000E0D6E0FA002D0038E24
:101C780001D0039ED8900F30046E0DBE048E01C0B3
:101C880001F002C002F003C003F004C004F0120027
:101C98002B50800B386E2B502B243F6E2ABE3F8072
:101CA8003F50D8B40DD03F28D8A408D0000E286ED5
:101CB800000E296E000E2A6E000E2B6E2A8E06D09C
:101CC800000E286E000E296E000E2A6E000E2B6E76
:101CD8002F50800B381A2F502F24406E2EBE408074
:101CE8004050D8B40DD04028D8A408D0000E2C6E8F
:101CF800000E2D6E000E2E6E000E2F6E2E8E06D04C
:101D0800000E2C6E000E2D6E000E2E6E000E2F6E25
:101D18002C502D102E102F10D8A417D0000E286E7E
:101D2800000E296E000E2A6E000E2B6E800E2A12EF
:101D38007F0E2B1238502B1228C028F029C029F00A
:101D48002AC02AF02BC02BF012003F50D8A409D08B
:101D5800000E286E000E296E000E2A6E000E2B6EE5
:101D6800120040503FC030F0316A305E000E315AE8
:101D78007F0E3024396E000E31203A6E28C034F0C0
:101D880029C035F02AC036F02BC037F0000E286E77
:101D9800000E296E000E2A6E000E2B6E000E3B6E92
:101DA800000E3C6E000E3D6E000E3E6E000E406E44
:101DB80028D04050D8B411D0D8903436353636367D
:101DC8003736D890283629362A362B363EBE288014
:101DD800D8903B363C363D363E362C50345C2D5040
:101DE80035582E5036582F503758D8A009D03E8C29
:101DF8002C50345E2D50355A2E50365A2F50375AA3
:101E0800402A190E4064D5D7345035103610371093
:101E1800D8B411D03B800FD0D890283629362A362E
:101E28002B363EBE2880D8903B363C363D363E3673
:101E38003906D8A03A062AAEEFD7000E406E3EAE5D
:101E480017D0FF0E3B14306EFF0E3C14316EFF0EA0
:101E58003D14326E7F0E3E14336E30503110321006
:101E68003310D8B403D0010E406E02D028B0FBD78F
:101E78004050D8B41FD0010E2826000E29222A224D
:101E88002B222BA017D028C030F029C031F02AC04F
:101E980032F02BC033F03334333232323132303215
:101EA80030C028F031C029F032C02AF033C02BF0FE
:101EB800394A3A2A3ABE10D03A5003E13928D8A014
:101EC8000BD0000E3A6E3968000E286E000E296E8F
:101ED800000E2A6E000E2B6E3ABE05D03A5011E164
:101EE8003904D8B00ED0000E3A6E000E396E000ECE
:101EF800286E000E296E000E2A6E000E2B6E000E44
:101F0800386E39C03FF03FA002D02A8E01D02A9EF9
:101F1800D8903F302B6E0ED7050EC26E0D0EC16ED7
:101F2800870EC06E62EC17F0010E076E140E086E75
:101F3800060E096E010E31EC18F0010E076E1A0E2E
:101F4800086E060E096E020E31EC18F0040E000140
:101F5800DB6F0C0EDA6F330EE82EFED7DA2FFCD7C4
:101F6800DB2FFAD700D0010EC26E420EE82EFED744
:101F780000D0C282C2B2FED7C4CFF4F00001F56B24
:101F8800F451DB6FDA6BC350DA25F46F000EDB21F6
:101F9800F56F000E136E400E146E9C0E156E450EF6
:101FA800166EF4C001F0F5C002F0000E02BEFF0E7E
:101FB800036E046E010EF1EC12F001C00FF002C0C6
:101FC80010F003C011F004C012F01DEC0BF00FC0AC
:101FD80028F010C029F011C02AF012C02BF0000E12
:101FE8002C6EC00E2D6E7F0E2E6E440E2F6E4CEC96
:101FF8000EF028C0E4F029C0E5F02AC0E6F02BC0B6
:10200800E7F0E4C028F0E5C029F0E6C02AF0E7C010
:102018002BF0000E2C6E000E2D6E200E2E6E410E33
:102028002F6E4CEC0EF028C0E4F029C0E5F02AC071
:10203800E6F02BC0E7F0050EC26E420EE82EFED782
:1020480000D0C282C2B2FED7C4CFF4F00001F56B53
:10205800F451DB6FDA6BC350DA25F46F000EDB2125
:10206800F56FF4C001F0F5C002F0000E02BEFF0EDD
:10207800036E046E880E056E130E066E000E076E54
:10208800000E086ED2EC18F001C00DF002C00EF080
:1020980003C00FF004C010F0FF0E116E030E126E95
:1020A800000E136E000E146EABEC15F00DC0E8F0C8
:1020B8000EC0E9F00FC0EAF010C0EBF0500E756EDC
:1020C800010E766E010E776E060E786EE4C079F01A
:1020D800E5C07AF0E6C07BF0E7C07CF0000E7E6ECB
:1020E800DF0E7D6EFDEC18F0070E076E500E086EC1
:1020F800010E096E010E31EC18F0500E756E010ECE
:10210800766E0B0E776E060E786EE8C079F0E9C031
:102118007AF0EAC07BF0EBC07CF0FDEC18F0070E1B
:10212800076E500E086E010E096E020E31EC18F0A3
:102138000DD7DCC051F0DDC052F0DEC053F0DFC077
:1021480054F041C051F042C052F043C053F044C073
:1021580054F0810E456EFF0E466E51C047F052C0D6
:1021680048F053C049F054C04AF0180E05D0D89032
:102178004A32493248324732E82EF9D74750452487
:102188004F6E000E4620506E50BE0FD0505004E1E6
:10219800170E4F5CD8A009D041C041F042C042F0B0
:1021A80043C043F044C044F0120050BE5ED04FC05C
:1021B80045F0FF0E466EFF0E476E7F0E486E000E0E
:1021C800496E456601D007D0493449324832473212
:1021D8004632452EF6D746C04BF047C04CF048C0B3
:1021E8004DF049C04EF04B505114456E4C505214AE
:1021F800466E4D505314476E4E505414486E455019
:10220800461047104810D8B4C7D751C045F052C03F
:1022180046F053C047F054C048F0200E05D0D8907F
:102228004832473246324532E82EF9D745504610F3
:1022380047104810D8B408D04B5051264C50522261
:102248004D5053224E5054224B1C456E4C1C466E2A
:102258004D1C476E4E1C486E45505116465052163E
:10226800475053164850541636D051C045F052C006
:1022780046F053C047F054C048F0200E05D0D8901F
:102288004832473246324532E82EF9D74550461093
:1022980047104810D8A408D0000E516E000E526E98
:1022A800000E536E000E16D0D8905134456E52343D
:1022B800466E5334476E5434486E455046104710A6
:1022C8004810D8B408D0000E516E000E526E800E21
:1022D800536EBF0E546E51C041F052C042F053C00D
:1022E80043F054C044F012000001F1AFF293F1BF83
:1022F80005D0F15108E1F005D8B005D0000E2F6ED9
:10230800010E2E6E04D0F0C02EF0F1C02FF0EEC0FA
:1023180030F0EFC031F01EC032F01FC033F020C0E3
:1023280034F021C035F022C036F023C037F024C085
:1023380038F025C039F0000E3B6E4F0E3A6E000E95
:1023480001014F6F76D03A06D8A03B06000E3A241A
:10235800D96E010E3B20DA6E32C001F033C002F0B4
:1023680034C003F035C004F036C005F037C006F0BD
:1023780038C007F039C008F00A0E096E000E0A6E60
:10238800000E0B6E000E0C6E000E0D6E000E0E6E23
:10239800000E0F6E000E106E6EEC16F001C026F0E7
:1023A80002C027F003C028F004C029F005C02AF0B5
:1023B80006C02BF007C02CF008C02DF02650300FB7
:1023C800DF6E2E06D8A02F063006D8A0310632C000
:1023D80001F033C002F034C003F035C004F036C059
:1023E80005F037C006F038C007F039C008F00A0E0B
:1023F800096E000E0A6E000E0B6E000E0C6E000EBB
:102408000D6E000E0E6E000E0F6E000E106EDEECDE
:1024180014F001C032F002C033F003C034F004C03D
:1024280035F005C036F006C037F007C038F008C0F0
:1024380039F03A503B10D8B41BD032503310341016
:1024480035103610371038103910D8A47CD72FBE65
:1024580005D02F5002E12E04D8B075D731BE08D070
:10246800315003E13004D8A003D00001F2B36BD798
:102478001CC011F01DC012F0000E3A24136E010E9C
:102488003B20146E30C015F031C016F015EC17F073
:1024980011C01CF012C01DF01200000E166E000EC6
:1024A800156E000E0F6E000E0E6E02D0084A092A35
:1024B800010E146E08C0F6FF09C0F7FF0800F550BA
:1024C800200AD8B418D0F70E0A6EFF0E0B6E08C09B
:1024D800F6FF09C0F7FF0800F5500C6E0D6A0A50A8
:1024E8000C260B500D220D5004E1050E0C5CD8A0F3
:1024F80002D0000E146E14C010F0116A10501110A2
:10250800D8B408D0D3D7000E0F6E010E0E6E084A4D
:10251800092A2ED008C0F6FF09C0F7FF0800F550B9
:102528000A6E0B6A0B50000AD8A422D00A502B0A54
:10253800D8B4EDD7060AD8B4E6D71AD015C001F03A
:1025480016C002F0000E046E0A0E036E57EC1AF065
:1025580008C0F6FF09C0F7FF0800F550015E000E3D
:10256800025A300E0124156E000E0220166ECFD7C7
:10257800D00E0A6EFF0E0B6E08C0F6FF09C0F7FFFB
:102588000800F5500C6E0D6A0A500C260B500D22EF
:102598000D5006E10A0E0C5CD8B002D0010E01D035
:1025A800000E126E136A12501310D8A4C7D70E501B
:1025B8000F10D8A40DD015C00AF016C00BF00A1ED3
:1025C8000B1E0A4A0B2A0AC008F00BC009F01200B9
:1025D80015C008F016C009F01200096E0950D8A4F9
:1025E80004AE1AD001C005F002C006F003C007F01F
:1025F80004C008F0051E061E071E081E052A000E48
:1026080006220722082205C00BF006C00CF007C0FE
:102618000DF008C00EF008D001C00BF002C00CF09D
:1026280003C00DF004C00EF0015002100310041096
:10263800D8A409D0000E016E000E026E000E036EC3
:10264800000E046E1200960E0A6E06D00A2AD89062
:102658000E320D320C320B32000E0B14056E000ECA
:102668000C14066E000E0D14076EFE0E0E14086E86
:102678000550061007100810D8B40DD0E7D70A2A5D
:10268800010E0B26000E0C220D220E22D8900E32BF
:102698000D320C320B32000E0B14056E000E0C14AA
:1026A800066E000E0D14076EFF0E0E14086E055010
:1026B800061007100810D8B407D0E1D70A06D8903A
:1026C8000B360C360D360E360DBE03D0020E0A60E0
:1026D800F5D70AA00D9ED8900A320AC005F0066AFE
:1026E800076A086A05C008F0076A066A056A05509D
:1026F8000B1206500C1207500D1208500E120950FA
:10270800D8A404AE01D00E8E0BC001F00CC002F0AC
:102718000DC003F00EC004F0120001C008F002C0A2
:1027280009F003C00AF004C00BF00506D8A006069D
:1027380005280FE10628D8A40CD0000E026E000E62
:10274800016E1200084A092A0A4A0B2A0506D8A06F
:10275800060608C0F6FF09C0F7FFF86A050EF76419
:1027680003D00800F55005D0F6CFE1FFF7CFE2FF20
:10277800E7500009D8B427D00AC0F6FF0BC0F7FF0E
:102788000800F5500009D8B41ED005500610D8B47A
:102798001AD00AC0F6FF0BC0F7FF0800F5CF07F004
:1027A80008C0F6FF09C0F7FFF86A050EF76403D002
:1027B8000800F55005D0F6CFE1FFF7CFE2FFE7506C
:1027C8000718D8B4BFD708C0F6FF09C0F7FFF86AE2
:1027D800050EF76403D00800F55005D0F6CFE1FFE9
:1027E800F7CFE2FFE750076E0AC0F6FF0BC0F7FF0E
:1027F8000800F550075C016E026AD8A002061200B4
:10280800046E100E016E04508AEC1AF0036E033A3F
:1028180083500318EF0B0318836E200E016E0450CB
:102828008AEC1AF0036E033A034683500318DF0B51
:102838000318836E400E016E04508AEC1AF0036E82
:10284800033A0346034683500318BF0B0318836EED
:10285800800E016E04508AEC1AF0036E03320332C4
:10286800835003187F0B0318836E84828492420E70
:10287800E82EFED700D0010E016E04508AEC1AF043
:10288800036E033A83500318EF0B0318836E020E8E
:10289800016E04508AEC1AF0036E033A0346835023
:1028A8000318DF0B0318836E040E016E04508AECC4
:1028B8001AF0036E033A0346034683500318BF0B0E
:1028C8000318836E080E016E04508AEC1AF0036E2A
:1028D80003320332835003187F0B0318836E8482FC
:1028E80084921200000E2814306E000E2914316EE6
:1028F800800E2A14326E7F0E2B14336E3050311036
:1029080032103310D8A408D0000E286E000E296E9D
:10291800000E2A6E000E2B6E000E2C14306E000E68
:102928002D14316E800E2E14326E7F0E2F14336EDE
:102938003050311032103310D8A408D0000E2C6E4D
:10294800000E2D6E000E2E6E000E2F6E2BAE09D0CF
:10295800286C291ED8B0292A2A1ED8B02A2A800E07
:102968002B562FAE09D02C6C2D1ED8B02D2A2E1E1A
:10297800D8B02E2A800E2F56000E281A000E291ABB
:10298800000E2A1A800E2B1A000E2C1A000E2D1A71
:10299800000E2E1A800E2F1A2C50285C2D50295804
:1029A8002E502A582F502B58D8B002D0D890120049
:1029B800D880120020EE11F0070EDE6AE806FDE26C
:1029C80009500A100B100C100D100E100F101010DB
:1029D800D8B446D0010E196E0AD0D89009360A36F6
:1029E8000B360C360D360E360F361036192A10AE49
:1029F800F4D7D890113612361336143615361636E3
:102A0800173618360950015C0A5002580B50035803
:102A18000C5004580D5005580E5006580F500758C2
:102A280010500858D8A011D00950015E0A50025A17
:102A38000B50035A0C50045A0D50055A0E50065AA2
:102A48000F50075A1050085A1180D89010320F3280
:102A58000E320D320C320B320A320932192EC9D716
:102A680011C001F012C002F013C003F014C004F04A
:102A780015C005F016C006F017C007F018C008F01A
:102A88001200E0C00BF0E1C00CF0E2C00DF0E3C0B2
:102A98000EF001C00BF002C00CF003C00DF004C032
:102AA8000EF00BC005F00CC006F00DC007F00EC00C
:102AB80008F0180E05D0D8900832073206320532D1
:102AC800E82EF9D70550096E0A6A09500A10D8A4E9
:102AD80019D0D8900B34056E0C34066E0D34076E81
:102AE8000E34086E0550061007100810D8A405D03B
:102AF800000E026E020E016E1200000E026E030E30
:102B0800016E120009280A10D8A41CD00BC005F0C9
:102B18000CC006F00DC007F00EC008F0090ED890E2
:102B28000536063607360836E82EF9D7055006105A
:102B380007100810D8A402D0010E01D0000E016EB3
:102B4800026A1200000E026E040E016E1200000EE0
:102B5800166E14AE0AD0141E131E121E116C000E2F
:102B6800122213221422010E166E10AE0AD0101E65
:102B78000F1E0E1E0D6C000E0E220F221022010ECB
:102B8800161A000E176E000E186E000E196E000E43
:102B98001A6E1150121013101410D8B42AD0010E46
:102BA800156E06D0D8901136123613361436152AFB
:102BB80014AEF8D7D8901736183619361A36115079
:102BC8000D5C12500E5813500F5814501058D8A0BE
:102BD80009D011500D5E12500E5A13500F5A14504E
:102BE800105A1780D8901432133212321132152E1F
:102BF800E1D71650D8B408D01A1E191E181E176C23
:102C0800000E182219221A2217C00DF018C00EF053
:102C180019C00FF01AC010F01200033404340A6E01
:102C28000A50D8A409D0000E016E000E026E000EE4
:102C3800036E000E046E120001C005F002C006F01B
:102C480003C007F004C008F0200E05D0D890083261
:102C5800073206320532E82EF9D70550096E038E81
:102C6800FF0E0116FF0E0216FF0E0316000E0416C5
:102C7800960E0A5E0AAE0DD00A50800A970FD8A0A9
:102C8800D2D7D89004320332023201320A3EF9D741
:102C98000DD01F0E0A6407D0C6D7D8900136023669
:102CA800033604360A060A50D8A4F7D70950D8B410
:102CB80008D0041E031E021E016C000E022203220D
:102CC800042201C001F002C002F003C003F004C0F6
:102CD80004F0120009500A100B100C100D100E1001
:102CE8000F101010D8B43CD0010E116E0AD0D89035
:102CF80009360A360B360C360D360E360F361036B8
:102D0800112A10AEF4D70950015C0A5002580B5032
:102D180003580C5004580D5005580E5006580F50C3
:102D2800075810500858D8A010D00950015E0A5012
:102D3800025A0B50035A0C50045A0D50055A0E50A3
:102D4800065A0F50075A1050085AD89010320F32AE
:102D58000E320D320C320B320A320932112ED3D711
:102D680001C001F002C002F003C003F004C004F087
:102D780005C005F006C006F007C007F008C008F057
:102D8800120003500410D8B404D003500410D8A47F
:102D980004D0015094EC1AF0120020EE04F0035015
:102DA800D9260450DA22DE50DE10D8B416D020EE30
:102DB80004F00350D9260450DA2210EE02F0035032
:102DC800E1260450E222DE50E65CE650800A096EF5
:102DD800DE50800A0958D8B0120020EE02F00350E5
:102DE800D9260450DA22DECF05F0DDCF06F003C085
:102DF800D9FF04C0DAFFDECF07F0DDCF08F00550B9
:102E08000724D96E06500820DA6E01C0DFFF20EED5
:102E180002F00350D9260450DA22DE2A000EDD2201
:102E280012000001F2A10AD013C00AF014C00BF07E
:102E380011C00CF012C00DF0DFEC19F016BE05D071
:102E480015C01AF016C01BF004D0000E1B6E000E41
:102E58001A6E000E196E000E186E0CD0000E026E5F
:102E6800200E016E11C003F012C004F0C5EC16F07C
:102E7800184A192A1A50185C1950800A176E1B50E4
:102E8800800A1758D8A0EAD70001F2B10AD013C0B7
:102E98000AF014C00BF011C00CF012C00DF0DFECFA
:102EA80019F013C001F014C002F042EC1AF01A50E5
:102EB8000124116E1B500220126E1200000E956E36
:102EC80096929690000E836E84908492270E056EDB
:102ED800F50EE82EFED7052EFCD700F0000E066E84
:102EE800300E04EC14F00D0E056EFC0EE82EFED725
:102EF800052EFCD7062A020E0664F2D7020E04EC51
:102F080014F01A0EE82EFED700D0280E04EC14F0A8
:102F18001A0EE82EFED700D0010E04EC14F0060EAF
:102F2800056E300EE82EFED7052EFCD700D00C0E0D
:102F380004EC14F01A0EE82EFED700D0060E04ECAE
:102F480014F01A0EE82EFED700D01200000E01145D
:102F5800096E000E02140A6E800E03140B6E7F0EAB
:102F680004140C6E09500A100B100C10D8A408D0C9
:102F7800000E016E000E026E000E036E000E046E4F
:102F8800000E0514096E000E06140A6E800E071452
:102F98000B6E7F0E08140C6E09500A100B100C10E3
:102FA800D8A408D0000E056E000E066E000E076E3F
:102FB800000E086E055001180AE10650021807E1D4
:102FC8000750031804E108500418D8B402D0D89068
:102FD8001200D8801200000E066E04AE06D0036CF4
:102FE800041ED8B0042A010E066E02AE06D0016C8B
:102FF800021ED8B0022A010E061A000E086E000E34
:10300800076E03500410D8B41CD0010E056E04D00E
:10301800D89003360436052A04AEFAD7D890073676
:1030280008360350015C04500258D8A005D003505C
:10303800015E0450025A0780D89004320332052EEC
:10304800EDD70650D8B404D0076C081ED8B0082AAB
:1030580007C001F008C002F012000B6E0B04D8A4E0
:1030680003D007507F0F06D0020E0B18D8A403D048
:103078000750BF0F0A6E0AC005F0000E7BEC1AF06D
:1030880016D008C0F6FF09C0F7FFF86A050EF76406
:1030980003D00800F55005D0F6CFE1FFF7CFE2FFE7
:1030A800E750056E010E7BEC1AF0084A092A08C0A1
:1030B800F6FF09C0F7FFF86A050EF76403D00800A9
:1030C800F55005D0F6CFE1FFF7CFE2FFE750000952
:1030D800D8B41200D6D7000E066E02AE06D0016C28
:1030E800021ED8B0022A010E066E04AE04D0036C8C
:1030F800041ED8B0042A03500410D8B418D0010E06
:10310800056E04D0D89003360436052A04AEFAD7E3
:103118000350015C04500258D8A004D00350015E4B
:103128000450025AD89004320332052EF1D70650C3
:10313800D8B404D0016C021ED8B0022A01C001F034
:1031480002C002F012006FC073F070C074F0000E7D
:103158000001ED6F000EEC6F13D06DC061F06EC012
:1031680062F0730E636E000E646E71C065F072C01B
:1031780066F0DAEC07F061500001EC276250ED23AD
:1031880073C0F6FF74C0F7FF0800F5500009D8A413
:10319800E4D7ECC06DF0EDC06EF01200000E096EC1
:1031A800000E0A6E000E0B6E000E0C6E01A008D009
:1031B8000550092606500A2207500B2208500C22F7
:1031C800D8900536063607360836D89004320332CA
:1031D800023201320150021003100410D8A4E6D7BD
:1031E80009C001F00AC002F00BC003F00CC004F0E3
:1031F8001200790E0001D26F000ED36F75C0D4F0A3
:1032080076C0D5F0000ED76F000ED66F000ED96FBE
:10321800000ED86FD40E6D6E000E6E6E77C06FF014
:1032280078C070F0D20E716E000E726EA7EC18F0B6
:103238000001D6517524D96ED7517620DA6E000E6A
:10324800DF6E120003C007F004C008F001C009F0E7
:1032580002C00AF00750056E0850066E074A082A91
:1032680005C0F6FF06C0F7FFF86A09C0D9FF0AC013
:10327800DAFF094A0A2A050EF76403D00800F55058
:1032880005D0F6CFE1FFF7CFE2FFE750DF6EDF5062
:10329800D8B41200DFD70001EE51EF11D8A405D041
:1032A800EEC01FF0EFC020F006D0FF0EEE251F6E17
:1032B800FF0EEF21206E1EC000F1000E0101016F0C
:1032C8001CC011F01DC012F0000E136E010E146E1A
:1032D8001FC015F020C016F015EC17F011C01CF037
:1032E80012C01DF01200BF0E096EFF0E0A6E07C055
:1032F8000BF008C00CF009500B260A500C220C5099
:1033080006E11A0E0B5CD8B002D0010E01D0000EF7
:103318000D6E0E6A0D500E10D8B406D0200E071090
:10332800076E0850086E120007C007F008C008F0C2
:103338001200000E2C1A000E2D1A000E2E1A800EE6
:103348002F1A28C001F029C002F02AC003F02BC0B0
:1033580004F02CC005F02DC006F02EC007F02FC0D9
:1033680008F0C6EC0CF001C028F002C029F003C038
:103378002AF004C02BF01200010E076E200E01186F
:103388000210D8B414D0F70E036EFF0E046E01C0FD
:1033980005F002C006F00350052604500622065028
:1033A80004E1050E055CD8A002D0000E076E07C028
:1033B80001F0026A1200000E106E000E0F6E0BD0A4
:1033C8000EC001F0026A0CC003F00DC004F0C5EC99
:1033D80016F00F4A102A0F500A24D96E10500B20ED
:1033E800DA6EDF500E6E0E50D8B41200E9D7BF0E59
:1033F800036EFF0E046E01C005F002C006F0035014
:10340800052604500622065006E11A0E055CD8B0BF
:1034180002D0010E01D0000E016E026A1200D00E19
:10342800036EFF0E046E01C005F002C006F00350E3
:10343800052604500622065006E10A0E055CD8B09F
:1034480002D0010E01D0000E016E026A1200015076
:10345800021003100410D8B408D0000E011A000E90
:10346800021A000E031A800E041A01C001F002C0ED
:1034780002F003C003F004C004F0120001C003F01E
:1034880002C004F002D0014A022A01C0D9FF02C0DA
:10349800DAFFDF50D8A4F7D70350015C016E04505F
:1034A8000258026E120001500302F3CF05F0F4CF68
:1034B80006F001500402F350062602500302F350AE
:1034C800062605C001F006C002F0120001EE00F069
:1034D800600EEE6AE806FDE100EEDCF01A0EEE6A18
:1034E800E806FDE1000EF86E000190EF0FF0066EA1
:1034F80006B002D0849001D08480420EE82EFED718
:1035080000D08492055004EC14F01200026E0250B0
:1035180001140009D8B402D0010E1200000E1200E6
:0235280012008F
:020000040020DA
:08000000FFFFFFFFFFFFFFFF00
:020000040030CA
:0E000000FF02181EFF8181FF0FC00FE00F40AE
:00000001FF
